{
  "_format": "hh-sol-artifact-1",
  "contractName": "NFTMarket",
  "sourceName": "contracts/NFTMarket.sol",
  "abi": [
    {
      "inputs": [],
      "stateMutability": "nonpayable",
      "type": "constructor"
    },
    {
      "anonymous": false,
      "inputs": [
        {
          "indexed": true,
          "internalType": "uint256",
          "name": "itemId",
          "type": "uint256"
        },
        {
          "indexed": true,
          "internalType": "address",
          "name": "nftContract",
          "type": "address"
        },
        {
          "indexed": true,
          "internalType": "uint256",
          "name": "tokenId",
          "type": "uint256"
        },
        {
          "indexed": false,
          "internalType": "address",
          "name": "seller",
          "type": "address"
        },
        {
          "indexed": false,
          "internalType": "address",
          "name": "owner",
          "type": "address"
        },
        {
          "indexed": false,
          "internalType": "uint256",
          "name": "price",
          "type": "uint256"
        },
        {
          "indexed": false,
          "internalType": "bool",
          "name": "sold",
          "type": "bool"
        }
      ],
      "name": "MarketItemCreated",
      "type": "event"
    },
    {
      "inputs": [
        {
          "internalType": "address",
          "name": "nftContract",
          "type": "address"
        },
        {
          "internalType": "uint256",
          "name": "tokenId",
          "type": "uint256"
        },
        {
          "internalType": "uint256",
          "name": "price",
          "type": "uint256"
        }
      ],
      "name": "createMarketItem",
      "outputs": [],
      "stateMutability": "payable",
      "type": "function"
    },
    {
      "inputs": [
        {
          "internalType": "address",
          "name": "nftContract",
          "type": "address"
        },
        {
          "internalType": "uint256",
          "name": "itemId",
          "type": "uint256"
        }
      ],
      "name": "createMarketSale",
      "outputs": [],
      "stateMutability": "payable",
      "type": "function"
    },
    {
      "inputs": [
        {
          "internalType": "address",
          "name": "contractAddr",
          "type": "address"
        },
        {
          "internalType": "uint256",
          "name": "tokenId",
          "type": "uint256"
        }
      ],
      "name": "fetchItemByContractAddAndTokenID",
      "outputs": [
        {
          "components": [
            {
              "internalType": "uint256",
              "name": "itemId",
              "type": "uint256"
            },
            {
              "internalType": "address",
              "name": "nftContract",
              "type": "address"
            },
            {
              "internalType": "uint256",
              "name": "tokenId",
              "type": "uint256"
            },
            {
              "internalType": "address payable",
              "name": "seller",
              "type": "address"
            },
            {
              "internalType": "address payable",
              "name": "owner",
              "type": "address"
            },
            {
              "internalType": "uint256",
              "name": "price",
              "type": "uint256"
            },
            {
              "internalType": "bool",
              "name": "sold",
              "type": "bool"
            }
          ],
          "internalType": "struct NFTMarket.MarketItem",
          "name": "",
          "type": "tuple"
        }
      ],
      "stateMutability": "view",
      "type": "function"
    },
    {
      "inputs": [],
      "name": "fetchMarketItems",
      "outputs": [
        {
          "components": [
            {
              "internalType": "uint256",
              "name": "itemId",
              "type": "uint256"
            },
            {
              "internalType": "address",
              "name": "nftContract",
              "type": "address"
            },
            {
              "internalType": "uint256",
              "name": "tokenId",
              "type": "uint256"
            },
            {
              "internalType": "address payable",
              "name": "seller",
              "type": "address"
            },
            {
              "internalType": "address payable",
              "name": "owner",
              "type": "address"
            },
            {
              "internalType": "uint256",
              "name": "price",
              "type": "uint256"
            },
            {
              "internalType": "bool",
              "name": "sold",
              "type": "bool"
            }
          ],
          "internalType": "struct NFTMarket.MarketItem[]",
          "name": "",
          "type": "tuple[]"
        }
      ],
      "stateMutability": "view",
      "type": "function"
    },
    {
      "inputs": [],
      "name": "fetchMyListedNFTs",
      "outputs": [
        {
          "components": [
            {
              "internalType": "uint256",
              "name": "itemId",
              "type": "uint256"
            },
            {
              "internalType": "address",
              "name": "nftContract",
              "type": "address"
            },
            {
              "internalType": "uint256",
              "name": "tokenId",
              "type": "uint256"
            },
            {
              "internalType": "address payable",
              "name": "seller",
              "type": "address"
            },
            {
              "internalType": "address payable",
              "name": "owner",
              "type": "address"
            },
            {
              "internalType": "uint256",
              "name": "price",
              "type": "uint256"
            },
            {
              "internalType": "bool",
              "name": "sold",
              "type": "bool"
            }
          ],
          "internalType": "struct NFTMarket.MarketItem[]",
          "name": "",
          "type": "tuple[]"
        }
      ],
      "stateMutability": "view",
      "type": "function"
    },
    {
      "inputs": [],
      "name": "fetchMyNFTs",
      "outputs": [
        {
          "components": [
            {
              "internalType": "uint256",
              "name": "itemId",
              "type": "uint256"
            },
            {
              "internalType": "address",
              "name": "nftContract",
              "type": "address"
            },
            {
              "internalType": "uint256",
              "name": "tokenId",
              "type": "uint256"
            },
            {
              "internalType": "address payable",
              "name": "seller",
              "type": "address"
            },
            {
              "internalType": "address payable",
              "name": "owner",
              "type": "address"
            },
            {
              "internalType": "uint256",
              "name": "price",
              "type": "uint256"
            },
            {
              "internalType": "bool",
              "name": "sold",
              "type": "bool"
            }
          ],
          "internalType": "struct NFTMarket.MarketItem[]",
          "name": "",
          "type": "tuple[]"
        }
      ],
      "stateMutability": "view",
      "type": "function"
    },
    {
      "inputs": [],
      "name": "getListingPrice",
      "outputs": [
        {
          "internalType": "uint256",
          "name": "",
          "type": "uint256"
        }
      ],
      "stateMutability": "view",
      "type": "function"
    }
  ],
  "bytecode": "0x60806040526658d15e1762800060045534801561001b57600080fd5b50600160008190555033600360006101000a81548173ffffffffffffffffffffffffffffffffffffffff021916908373ffffffffffffffffffffffffffffffffffffffff160217905550611fab806100746000396000f3fe6080604052600436106100705760003560e01c8063202e37401161004e578063202e3740146100f65780633afef9b81461012157806358eb2df51461015e578063c23b139e1461017a57610070565b80630e2cb944146100755780630f08efe0146100a057806312e85585146100cb575b600080fd5b34801561008157600080fd5b5061008a610196565b6040516100979190611b6a565b60405180910390f35b3480156100ac57600080fd5b506100b5610622565b6040516100c29190611b6a565b60405180910390f35b3480156100d757600080fd5b506100e0610937565b6040516100ed9190611c47565b60405180910390f35b34801561010257600080fd5b5061010b610941565b6040516101189190611b6a565b60405180910390f35b34801561012d57600080fd5b50610148600480360381019061014391906117b9565b610cdb565b6040516101559190611c2c565b60405180910390f35b610178600480360381019061017391906117f5565b610f62565b005b610194600480360381019061018f91906117b9565b611384565b005b606060006101a460016116ac565b905060008060005b838110156102c6573373ffffffffffffffffffffffffffffffffffffffff16600560006001846101dc9190611cac565b815260200190815260200160002060030160009054906101000a900473ffffffffffffffffffffffffffffffffffffffff1673ffffffffffffffffffffffffffffffffffffffff1614801561029e57503073ffffffffffffffffffffffffffffffffffffffff16600560006001846102549190611cac565b815260200190815260200160002060040160009054906101000a900473ffffffffffffffffffffffffffffffffffffffff1673ffffffffffffffffffffffffffffffffffffffff16145b156102b3576001836102b09190611cac565b92505b80806102be90611d90565b9150506101ac565b5060008267ffffffffffffffff811115610309577f4e487b7100000000000000000000000000000000000000000000000000000000600052604160045260246000fd5b60405190808252806020026020018201604052801561034257816020015b61032f6116d0565b8152602001906001900390816103275790505b50905060005b84811015610617573373ffffffffffffffffffffffffffffffffffffffff16600560006001846103789190611cac565b815260200190815260200160002060030160009054906101000a900473ffffffffffffffffffffffffffffffffffffffff1673ffffffffffffffffffffffffffffffffffffffff1614801561043a57503073ffffffffffffffffffffffffffffffffffffffff16600560006001846103f09190611cac565b815260200190815260200160002060040160009054906101000a900473ffffffffffffffffffffffffffffffffffffffff1673ffffffffffffffffffffffffffffffffffffffff16145b1561060457600060018261044e9190611cac565b90506000600560008381526020019081526020016000209050806040518060e0016040529081600082015481526020016001820160009054906101000a900473ffffffffffffffffffffffffffffffffffffffff1673ffffffffffffffffffffffffffffffffffffffff1673ffffffffffffffffffffffffffffffffffffffff168152602001600282015481526020016003820160009054906101000a900473ffffffffffffffffffffffffffffffffffffffff1673ffffffffffffffffffffffffffffffffffffffff1673ffffffffffffffffffffffffffffffffffffffff1681526020016004820160009054906101000a900473ffffffffffffffffffffffffffffffffffffffff1673ffffffffffffffffffffffffffffffffffffffff1673ffffffffffffffffffffffffffffffffffffffff168152602001600582015481526020016006820160009054906101000a900460ff1615151515815250508486815181106105e7577f4e487b7100000000000000000000000000000000000000000000000000000000600052603260045260246000fd5b60200260200101819052506001856105ff9190611cac565b945050505b808061060f90611d90565b915050610348565b508094505050505090565b6060600061063060016116ac565b9050600061063e60026116ac565b61064860016116ac565b6106529190611d02565b90506000808267ffffffffffffffff811115610697577f4e487b7100000000000000000000000000000000000000000000000000000000600052604160045260246000fd5b6040519080825280602002602001820160405280156106d057816020015b6106bd6116d0565b8152602001906001900390816106b55790505b50905060005b8481101561092c573073ffffffffffffffffffffffffffffffffffffffff16600560006001846107069190611cac565b815260200190815260200160002060040160009054906101000a900473ffffffffffffffffffffffffffffffffffffffff1673ffffffffffffffffffffffffffffffffffffffff1614156109195760006001826107639190611cac565b90506000600560008381526020019081526020016000209050806040518060e0016040529081600082015481526020016001820160009054906101000a900473ffffffffffffffffffffffffffffffffffffffff1673ffffffffffffffffffffffffffffffffffffffff1673ffffffffffffffffffffffffffffffffffffffff168152602001600282015481526020016003820160009054906101000a900473ffffffffffffffffffffffffffffffffffffffff1673ffffffffffffffffffffffffffffffffffffffff1673ffffffffffffffffffffffffffffffffffffffff1681526020016004820160009054906101000a900473ffffffffffffffffffffffffffffffffffffffff1673ffffffffffffffffffffffffffffffffffffffff1673ffffffffffffffffffffffffffffffffffffffff168152602001600582015481526020016006820160009054906101000a900460ff1615151515815250508486815181106108fc577f4e487b7100000000000000000000000000000000000000000000000000000000600052603260045260246000fd5b60200260200101819052506001856109149190611cac565b945050505b808061092490611d90565b9150506106d6565b508094505050505090565b6000600454905090565b6060600061094f60016116ac565b905060008060005b838110156109f8573373ffffffffffffffffffffffffffffffffffffffff16600560006001846109879190611cac565b815260200190815260200160002060040160009054906101000a900473ffffffffffffffffffffffffffffffffffffffff1673ffffffffffffffffffffffffffffffffffffffff1614156109e5576001836109e29190611cac565b92505b80806109f090611d90565b915050610957565b5060008267ffffffffffffffff811115610a3b577f4e487b7100000000000000000000000000000000000000000000000000000000600052604160045260246000fd5b604051908082528060200260200182016040528015610a7457816020015b610a616116d0565b815260200190600190039081610a595790505b50905060005b84811015610cd0573373ffffffffffffffffffffffffffffffffffffffff1660056000600184610aaa9190611cac565b815260200190815260200160002060040160009054906101000a900473ffffffffffffffffffffffffffffffffffffffff1673ffffffffffffffffffffffffffffffffffffffff161415610cbd576000600182610b079190611cac565b90506000600560008381526020019081526020016000209050806040518060e0016040529081600082015481526020016001820160009054906101000a900473ffffffffffffffffffffffffffffffffffffffff1673ffffffffffffffffffffffffffffffffffffffff1673ffffffffffffffffffffffffffffffffffffffff168152602001600282015481526020016003820160009054906101000a900473ffffffffffffffffffffffffffffffffffffffff1673ffffffffffffffffffffffffffffffffffffffff1673ffffffffffffffffffffffffffffffffffffffff1681526020016004820160009054906101000a900473ffffffffffffffffffffffffffffffffffffffff1673ffffffffffffffffffffffffffffffffffffffff1673ffffffffffffffffffffffffffffffffffffffff168152602001600582015481526020016006820160009054906101000a900460ff161515151581525050848681518110610ca0577f4e487b7100000000000000000000000000000000000000000000000000000000600052603260045260246000fd5b6020026020010181905250600185610cb89190611cac565b945050505b8080610cc890611d90565b915050610a7a565b508094505050505090565b610ce36116d0565b6000610cef60016116ac565b905060005b81811015610f20578473ffffffffffffffffffffffffffffffffffffffff1660056000600184610d249190611cac565b815260200190815260200160002060010160009054906101000a900473ffffffffffffffffffffffffffffffffffffffff1673ffffffffffffffffffffffffffffffffffffffff16148015610d9a57508360056000600184610d869190611cac565b815260200190815260200160002060020154145b15610f0d5760056000600183610db09190611cac565b81526020019081526020016000206040518060e0016040529081600082015481526020016001820160009054906101000a900473ffffffffffffffffffffffffffffffffffffffff1673ffffffffffffffffffffffffffffffffffffffff1673ffffffffffffffffffffffffffffffffffffffff168152602001600282015481526020016003820160009054906101000a900473ffffffffffffffffffffffffffffffffffffffff1673ffffffffffffffffffffffffffffffffffffffff1673ffffffffffffffffffffffffffffffffffffffff1681526020016004820160009054906101000a900473ffffffffffffffffffffffffffffffffffffffff1673ffffffffffffffffffffffffffffffffffffffff1673ffffffffffffffffffffffffffffffffffffffff168152602001600582015481526020016006820160009054906101000a900460ff16151515158152505092505050610f5c565b8080610f1890611d90565b915050610cf4565b506040517f08c379a0000000000000000000000000000000000000000000000000000000008152600401610f5390611b8c565b60405180910390fd5b92915050565b60026000541415610fa8576040517f08c379a0000000000000000000000000000000000000000000000000000000008152600401610f9f90611bec565b60405180910390fd5b600260008190555060008111610ff3576040517f08c379a0000000000000000000000000000000000000000000000000000000008152600401610fea90611c0c565b60405180910390fd5b6004543414611037576040517f08c379a000000000000000000000000000000000000000000000000000000000815260040161102e90611bcc565b60405180910390fd5b8273ffffffffffffffffffffffffffffffffffffffff16636352211e836040518263ffffffff1660e01b81526004016110709190611c47565b60206040518083038186803b15801561108857600080fd5b505afa15801561109c573d6000803e3d6000fd5b505050506040513d601f19601f820116820180604052508101906110c09190611790565b73ffffffffffffffffffffffffffffffffffffffff163373ffffffffffffffffffffffffffffffffffffffff16146110f757600080fd5b61110160016116ba565b600061110d60016116ac565b90506040518060e001604052808281526020018573ffffffffffffffffffffffffffffffffffffffff1681526020018481526020013373ffffffffffffffffffffffffffffffffffffffff1681526020013073ffffffffffffffffffffffffffffffffffffffff16815260200183815260200160001515815250600560008381526020019081526020016000206000820151816000015560208201518160010160006101000a81548173ffffffffffffffffffffffffffffffffffffffff021916908373ffffffffffffffffffffffffffffffffffffffff1602179055506040820151816002015560608201518160030160006101000a81548173ffffffffffffffffffffffffffffffffffffffff021916908373ffffffffffffffffffffffffffffffffffffffff16021790555060808201518160040160006101000a81548173ffffffffffffffffffffffffffffffffffffffff021916908373ffffffffffffffffffffffffffffffffffffffff16021790555060a0820151816005015560c08201518160060160006101000a81548160ff0219169083151502179055509050508373ffffffffffffffffffffffffffffffffffffffff166323b872dd3330866040518463ffffffff1660e01b81526004016112ed93929190611aee565b600060405180830381600087803b15801561130757600080fd5b505af115801561131b573d6000803e3d6000fd5b50505050828473ffffffffffffffffffffffffffffffffffffffff16827f045dfa01dcba2b36aba1d3dc4a874f4b0c5d2fbeb8d2c4b34a7d88c8d8f929d1333087600060405161136e9493929190611b25565b60405180910390a4506001600081905550505050565b600260005414156113ca576040517f08c379a00000000000000000000000000000000000000000000000000000000081526004016113c190611bec565b60405180910390fd5b600260008190555060006005600083815260200190815260200160002060050154905060006005600084815260200190815260200160002060020154905081341461144a576040517f08c379a000000000000000000000000000000000000000000000000000000000815260040161144190611bac565b60405180910390fd5b6005600084815260200190815260200160002060030160009054906101000a900473ffffffffffffffffffffffffffffffffffffffff1673ffffffffffffffffffffffffffffffffffffffff163373ffffffffffffffffffffffffffffffffffffffff1614156114b957600080fd5b6005600084815260200190815260200160002060030160009054906101000a900473ffffffffffffffffffffffffffffffffffffffff1673ffffffffffffffffffffffffffffffffffffffff166108fc349081150290604051600060405180830381858888f19350505050158015611535573d6000803e3d6000fd5b508373ffffffffffffffffffffffffffffffffffffffff166323b872dd3033846040518463ffffffff1660e01b815260040161157393929190611aee565b600060405180830381600087803b15801561158d57600080fd5b505af11580156115a1573d6000803e3d6000fd5b50505050336005600085815260200190815260200160002060040160006101000a81548173ffffffffffffffffffffffffffffffffffffffff021916908373ffffffffffffffffffffffffffffffffffffffff16021790555060016005600085815260200190815260200160002060060160006101000a81548160ff02191690831515021790555061163360026116ba565b600360009054906101000a900473ffffffffffffffffffffffffffffffffffffffff1673ffffffffffffffffffffffffffffffffffffffff166108fc6004549081150290604051600060405180830381858888f1935050505015801561169d573d6000803e3d6000fd5b50505060016000819055505050565b600081600001549050919050565b6001816000016000828254019250508190555050565b6040518060e0016040528060008152602001600073ffffffffffffffffffffffffffffffffffffffff16815260200160008152602001600073ffffffffffffffffffffffffffffffffffffffff168152602001600073ffffffffffffffffffffffffffffffffffffffff168152602001600081526020016000151581525090565b60008135905061176081611f47565b92915050565b60008151905061177581611f47565b92915050565b60008135905061178a81611f5e565b92915050565b6000602082840312156117a257600080fd5b60006117b084828501611766565b91505092915050565b600080604083850312156117cc57600080fd5b60006117da85828601611751565b92505060206117eb8582860161177b565b9150509250929050565b60008060006060848603121561180a57600080fd5b600061181886828701611751565b93505060206118298682870161177b565b925050604061183a8682870161177b565b9150509250925092565b600061185083836119b4565b60e08301905092915050565b61186581611d48565b82525050565b61187481611d36565b82525050565b61188381611d36565b82525050565b600061189482611c72565b61189e8185611c8a565b93506118a983611c62565b8060005b838110156118da5781516118c18882611844565b97506118cc83611c7d565b9250506001810190506118ad565b5085935050505092915050565b6118f081611d5a565b82525050565b6118ff81611d5a565b82525050565b6000611912600983611c9b565b915061191d82611e08565b602082019050919050565b6000611935604083611c9b565b915061194082611e31565b604082019050919050565b6000611958604483611c9b565b915061196382611e80565b606082019050919050565b600061197b601f83611c9b565b915061198682611ef5565b602082019050919050565b600061199e601c83611c9b565b91506119a982611f1e565b602082019050919050565b60e0820160008201516119ca6000850182611ad0565b5060208201516119dd602085018261186b565b5060408201516119f06040850182611ad0565b506060820151611a03606085018261185c565b506080820151611a16608085018261185c565b5060a0820151611a2960a0850182611ad0565b5060c0820151611a3c60c08501826118e7565b50505050565b60e082016000820151611a586000850182611ad0565b506020820151611a6b602085018261186b565b506040820151611a7e6040850182611ad0565b506060820151611a91606085018261185c565b506080820151611aa4608085018261185c565b5060a0820151611ab760a0850182611ad0565b5060c0820151611aca60c08501826118e7565b50505050565b611ad981611d86565b82525050565b611ae881611d86565b82525050565b6000606082019050611b03600083018661187a565b611b10602083018561187a565b611b1d6040830184611adf565b949350505050565b6000608082019050611b3a600083018761187a565b611b47602083018661187a565b611b546040830185611adf565b611b6160608301846118f6565b95945050505050565b60006020820190508181036000830152611b848184611889565b905092915050565b60006020820190508181036000830152611ba581611905565b9050919050565b60006020820190508181036000830152611bc581611928565b9050919050565b60006020820190508181036000830152611be58161194b565b9050919050565b60006020820190508181036000830152611c058161196e565b9050919050565b60006020820190508181036000830152611c2581611991565b9050919050565b600060e082019050611c416000830184611a42565b92915050565b6000602082019050611c5c6000830184611adf565b92915050565b6000819050602082019050919050565b600081519050919050565b6000602082019050919050565b600082825260208201905092915050565b600082825260208201905092915050565b6000611cb782611d86565b9150611cc283611d86565b9250827fffffffffffffffffffffffffffffffffffffffffffffffffffffffffffffffff03821115611cf757611cf6611dd9565b5b828201905092915050565b6000611d0d82611d86565b9150611d1883611d86565b925082821015611d2b57611d2a611dd9565b5b828203905092915050565b6000611d4182611d66565b9050919050565b6000611d5382611d66565b9050919050565b60008115159050919050565b600073ffffffffffffffffffffffffffffffffffffffff82169050919050565b6000819050919050565b6000611d9b82611d86565b91507fffffffffffffffffffffffffffffffffffffffffffffffffffffffffffffffff821415611dce57611dcd611dd9565b5b600182019050919050565b7f4e487b7100000000000000000000000000000000000000000000000000000000600052601160045260246000fd5b7f4e6f7420666f756e640000000000000000000000000000000000000000000000600082015250565b7f506c65617365207375626d6974207468652061736b696e67207072696365206960008201527f6e206f7264657220746f20636f6d706c65746520746865207075726368617365602082015250565b7f546865206c697374696e67207072696365206d7573742062652074686520736160008201527f6d6520617320746865206d61726b657420706c616365206c697374696e67207060208201527f7269636500000000000000000000000000000000000000000000000000000000604082015250565b7f5265656e7472616e637947756172643a207265656e7472616e742063616c6c00600082015250565b7f5072696365206d757374206265206174206c6561737420312077656900000000600082015250565b611f5081611d36565b8114611f5b57600080fd5b50565b611f6781611d86565b8114611f7257600080fd5b5056fea2646970667358221220ae0be0f00887e3d07581e871f2f66e0259862d5abfc21ca400135ce27ef4c75264736f6c63430008040033",
  "linkReferences": {},
  "deployedLinkReferences": {}
}