{
  "_format": "hh-sol-artifact-1",
  "contractName": "NFTMarket",
  "sourceName": "contracts/NFTMarket.sol",
  "abi": [
    {
      "inputs": [],
      "stateMutability": "nonpayable",
      "type": "constructor"
    },
    {
      "anonymous": false,
      "inputs": [
        {
          "indexed": true,
          "internalType": "uint256",
          "name": "itemId",
          "type": "uint256"
        },
        {
          "indexed": true,
          "internalType": "address",
          "name": "nftContract",
          "type": "address"
        },
        {
          "indexed": true,
          "internalType": "uint256",
          "name": "tokenId",
          "type": "uint256"
        },
        {
          "indexed": false,
          "internalType": "address",
          "name": "seller",
          "type": "address"
        },
        {
          "indexed": false,
          "internalType": "address",
          "name": "owner",
          "type": "address"
        },
        {
          "indexed": false,
          "internalType": "uint256",
          "name": "price",
          "type": "uint256"
        },
        {
          "indexed": false,
          "internalType": "bool",
          "name": "sold",
          "type": "bool"
        }
      ],
      "name": "MarketItemCreated",
      "type": "event"
    },
    {
      "inputs": [
        {
          "internalType": "address",
          "name": "nftContract",
          "type": "address"
        },
        {
          "internalType": "uint256",
          "name": "tokenId",
          "type": "uint256"
        },
        {
          "internalType": "uint256",
          "name": "price",
          "type": "uint256"
        }
      ],
      "name": "createMarketItem",
      "outputs": [],
      "stateMutability": "payable",
      "type": "function"
    },
    {
      "inputs": [
        {
          "internalType": "address",
          "name": "nftContract",
          "type": "address"
        },
        {
          "internalType": "uint256",
          "name": "itemId",
          "type": "uint256"
        }
      ],
      "name": "createMarketSale",
      "outputs": [],
      "stateMutability": "payable",
      "type": "function"
    },
    {
      "inputs": [],
      "name": "fetchMarketItems",
      "outputs": [
        {
          "components": [
            {
              "internalType": "uint256",
              "name": "itemId",
              "type": "uint256"
            },
            {
              "internalType": "address",
              "name": "nftContract",
              "type": "address"
            },
            {
              "internalType": "uint256",
              "name": "tokenId",
              "type": "uint256"
            },
            {
              "internalType": "address payable",
              "name": "seller",
              "type": "address"
            },
            {
              "internalType": "address payable",
              "name": "owner",
              "type": "address"
            },
            {
              "internalType": "uint256",
              "name": "price",
              "type": "uint256"
            },
            {
              "internalType": "bool",
              "name": "sold",
              "type": "bool"
            }
          ],
          "internalType": "struct NFTMarket.MarketItem[]",
          "name": "",
          "type": "tuple[]"
        }
      ],
      "stateMutability": "view",
      "type": "function"
    },
    {
      "inputs": [],
      "name": "fetchMyListedNFTs",
      "outputs": [
        {
          "components": [
            {
              "internalType": "uint256",
              "name": "itemId",
              "type": "uint256"
            },
            {
              "internalType": "address",
              "name": "nftContract",
              "type": "address"
            },
            {
              "internalType": "uint256",
              "name": "tokenId",
              "type": "uint256"
            },
            {
              "internalType": "address payable",
              "name": "seller",
              "type": "address"
            },
            {
              "internalType": "address payable",
              "name": "owner",
              "type": "address"
            },
            {
              "internalType": "uint256",
              "name": "price",
              "type": "uint256"
            },
            {
              "internalType": "bool",
              "name": "sold",
              "type": "bool"
            }
          ],
          "internalType": "struct NFTMarket.MarketItem[]",
          "name": "",
          "type": "tuple[]"
        }
      ],
      "stateMutability": "view",
      "type": "function"
    },
    {
      "inputs": [],
      "name": "fetchMyNFTs",
      "outputs": [
        {
          "components": [
            {
              "internalType": "uint256",
              "name": "itemId",
              "type": "uint256"
            },
            {
              "internalType": "address",
              "name": "nftContract",
              "type": "address"
            },
            {
              "internalType": "uint256",
              "name": "tokenId",
              "type": "uint256"
            },
            {
              "internalType": "address payable",
              "name": "seller",
              "type": "address"
            },
            {
              "internalType": "address payable",
              "name": "owner",
              "type": "address"
            },
            {
              "internalType": "uint256",
              "name": "price",
              "type": "uint256"
            },
            {
              "internalType": "bool",
              "name": "sold",
              "type": "bool"
            }
          ],
          "internalType": "struct NFTMarket.MarketItem[]",
          "name": "",
          "type": "tuple[]"
        }
      ],
      "stateMutability": "view",
      "type": "function"
    },
    {
      "inputs": [],
      "name": "getListingPrice",
      "outputs": [
        {
          "internalType": "uint256",
          "name": "",
          "type": "uint256"
        }
      ],
      "stateMutability": "view",
      "type": "function"
    }
  ],
  "bytecode": "0x60806040526658d15e1762800060045534801561001b57600080fd5b50600160008190555033600360006101000a81548173ffffffffffffffffffffffffffffffffffffffff021916908373ffffffffffffffffffffffffffffffffffffffff1602179055506119ca806100746000396000f3fe6080604052600436106100555760003560e01c80630e2cb9441461005a5780630f08efe01461008557806312e85585146100b0578063202e3740146100db57806358eb2df514610106578063c23b139e14610122575b600080fd5b34801561006657600080fd5b5061006f61013e565b60405161007c91906115ed565b60405180910390f35b34801561009157600080fd5b5061009a6104d8565b6040516100a791906115ed565b60405180910390f35b3480156100bc57600080fd5b506100c56107ee565b6040516100d2919061168f565b60405180910390f35b3480156100e757600080fd5b506100f06107f8565b6040516100fd91906115ed565b60405180910390f35b610120600480360381019061011b9190611329565b610b92565b005b61013c600480360381019061013791906112ed565b610ef6565b005b6060600061014c600161121e565b905060008060005b838110156101f5573373ffffffffffffffffffffffffffffffffffffffff166005600060018461018491906116f4565b815260200190815260200160002060030160009054906101000a900473ffffffffffffffffffffffffffffffffffffffff1673ffffffffffffffffffffffffffffffffffffffff1614156101e2576001836101df91906116f4565b92505b80806101ed906117d8565b915050610154565b5060008267ffffffffffffffff811115610238577f4e487b7100000000000000000000000000000000000000000000000000000000600052604160045260246000fd5b60405190808252806020026020018201604052801561027157816020015b61025e611242565b8152602001906001900390816102565790505b50905060005b848110156104cd573373ffffffffffffffffffffffffffffffffffffffff16600560006001846102a791906116f4565b815260200190815260200160002060030160009054906101000a900473ffffffffffffffffffffffffffffffffffffffff1673ffffffffffffffffffffffffffffffffffffffff1614156104ba57600060018261030491906116f4565b90506000600560008381526020019081526020016000209050806040518060e0016040529081600082015481526020016001820160009054906101000a900473ffffffffffffffffffffffffffffffffffffffff1673ffffffffffffffffffffffffffffffffffffffff1673ffffffffffffffffffffffffffffffffffffffff168152602001600282015481526020016003820160009054906101000a900473ffffffffffffffffffffffffffffffffffffffff1673ffffffffffffffffffffffffffffffffffffffff1673ffffffffffffffffffffffffffffffffffffffff1681526020016004820160009054906101000a900473ffffffffffffffffffffffffffffffffffffffff1673ffffffffffffffffffffffffffffffffffffffff1673ffffffffffffffffffffffffffffffffffffffff168152602001600582015481526020016006820160009054906101000a900460ff16151515158152505084868151811061049d577f4e487b7100000000000000000000000000000000000000000000000000000000600052603260045260246000fd5b60200260200101819052506001856104b591906116f4565b945050505b80806104c5906117d8565b915050610277565b508094505050505090565b606060006104e6600161121e565b905060006104f4600261121e565b6104fe600161121e565b610508919061174a565b90506000808267ffffffffffffffff81111561054d577f4e487b7100000000000000000000000000000000000000000000000000000000600052604160045260246000fd5b60405190808252806020026020018201604052801561058657816020015b610573611242565b81526020019060019003908161056b5790505b50905060005b848110156107e357600073ffffffffffffffffffffffffffffffffffffffff16600560006001846105bd91906116f4565b815260200190815260200160002060040160009054906101000a900473ffffffffffffffffffffffffffffffffffffffff1673ffffffffffffffffffffffffffffffffffffffff1614156107d057600060018261061a91906116f4565b90506000600560008381526020019081526020016000209050806040518060e0016040529081600082015481526020016001820160009054906101000a900473ffffffffffffffffffffffffffffffffffffffff1673ffffffffffffffffffffffffffffffffffffffff1673ffffffffffffffffffffffffffffffffffffffff168152602001600282015481526020016003820160009054906101000a900473ffffffffffffffffffffffffffffffffffffffff1673ffffffffffffffffffffffffffffffffffffffff1673ffffffffffffffffffffffffffffffffffffffff1681526020016004820160009054906101000a900473ffffffffffffffffffffffffffffffffffffffff1673ffffffffffffffffffffffffffffffffffffffff1673ffffffffffffffffffffffffffffffffffffffff168152602001600582015481526020016006820160009054906101000a900460ff1615151515815250508486815181106107b3577f4e487b7100000000000000000000000000000000000000000000000000000000600052603260045260246000fd5b60200260200101819052506001856107cb91906116f4565b945050505b80806107db906117d8565b91505061058c565b508094505050505090565b6000600454905090565b60606000610806600161121e565b905060008060005b838110156108af573373ffffffffffffffffffffffffffffffffffffffff166005600060018461083e91906116f4565b815260200190815260200160002060040160009054906101000a900473ffffffffffffffffffffffffffffffffffffffff1673ffffffffffffffffffffffffffffffffffffffff16141561089c5760018361089991906116f4565b92505b80806108a7906117d8565b91505061080e565b5060008267ffffffffffffffff8111156108f2577f4e487b7100000000000000000000000000000000000000000000000000000000600052604160045260246000fd5b60405190808252806020026020018201604052801561092b57816020015b610918611242565b8152602001906001900390816109105790505b50905060005b84811015610b87573373ffffffffffffffffffffffffffffffffffffffff166005600060018461096191906116f4565b815260200190815260200160002060040160009054906101000a900473ffffffffffffffffffffffffffffffffffffffff1673ffffffffffffffffffffffffffffffffffffffff161415610b745760006001826109be91906116f4565b90506000600560008381526020019081526020016000209050806040518060e0016040529081600082015481526020016001820160009054906101000a900473ffffffffffffffffffffffffffffffffffffffff1673ffffffffffffffffffffffffffffffffffffffff1673ffffffffffffffffffffffffffffffffffffffff168152602001600282015481526020016003820160009054906101000a900473ffffffffffffffffffffffffffffffffffffffff1673ffffffffffffffffffffffffffffffffffffffff1673ffffffffffffffffffffffffffffffffffffffff1681526020016004820160009054906101000a900473ffffffffffffffffffffffffffffffffffffffff1673ffffffffffffffffffffffffffffffffffffffff1673ffffffffffffffffffffffffffffffffffffffff168152602001600582015481526020016006820160009054906101000a900460ff161515151581525050848681518110610b57577f4e487b7100000000000000000000000000000000000000000000000000000000600052603260045260246000fd5b6020026020010181905250600185610b6f91906116f4565b945050505b8080610b7f906117d8565b915050610931565b508094505050505090565b60026000541415610bd8576040517f08c379a0000000000000000000000000000000000000000000000000000000008152600401610bcf9061164f565b60405180910390fd5b600260008190555060008111610c23576040517f08c379a0000000000000000000000000000000000000000000000000000000008152600401610c1a9061166f565b60405180910390fd5b6004543414610c67576040517f08c379a0000000000000000000000000000000000000000000000000000000008152600401610c5e9061162f565b60405180910390fd5b610c71600161122c565b6000610c7d600161121e565b90506040518060e001604052808281526020018573ffffffffffffffffffffffffffffffffffffffff1681526020018481526020013373ffffffffffffffffffffffffffffffffffffffff168152602001600073ffffffffffffffffffffffffffffffffffffffff16815260200183815260200160001515815250600560008381526020019081526020016000206000820151816000015560208201518160010160006101000a81548173ffffffffffffffffffffffffffffffffffffffff021916908373ffffffffffffffffffffffffffffffffffffffff1602179055506040820151816002015560608201518160030160006101000a81548173ffffffffffffffffffffffffffffffffffffffff021916908373ffffffffffffffffffffffffffffffffffffffff16021790555060808201518160040160006101000a81548173ffffffffffffffffffffffffffffffffffffffff021916908373ffffffffffffffffffffffffffffffffffffffff16021790555060a0820151816005015560c08201518160060160006101000a81548160ff0219169083151502179055509050508373ffffffffffffffffffffffffffffffffffffffff166323b872dd3330866040518463ffffffff1660e01b8152600401610e5e93929190611571565b600060405180830381600087803b158015610e7857600080fd5b505af1158015610e8c573d6000803e3d6000fd5b50505050828473ffffffffffffffffffffffffffffffffffffffff16827f045dfa01dcba2b36aba1d3dc4a874f4b0c5d2fbeb8d2c4b34a7d88c8d8f929d1336000876000604051610ee094939291906115a8565b60405180910390a4506001600081905550505050565b60026000541415610f3c576040517f08c379a0000000000000000000000000000000000000000000000000000000008152600401610f339061164f565b60405180910390fd5b6002600081905550600060056000838152602001908152602001600020600501549050600060056000848152602001908152602001600020600201549050813414610fbc576040517f08c379a0000000000000000000000000000000000000000000000000000000008152600401610fb39061160f565b60405180910390fd5b6005600084815260200190815260200160002060030160009054906101000a900473ffffffffffffffffffffffffffffffffffffffff1673ffffffffffffffffffffffffffffffffffffffff163373ffffffffffffffffffffffffffffffffffffffff16141561102b57600080fd5b6005600084815260200190815260200160002060030160009054906101000a900473ffffffffffffffffffffffffffffffffffffffff1673ffffffffffffffffffffffffffffffffffffffff166108fc349081150290604051600060405180830381858888f193505050501580156110a7573d6000803e3d6000fd5b508373ffffffffffffffffffffffffffffffffffffffff166323b872dd3033846040518463ffffffff1660e01b81526004016110e593929190611571565b600060405180830381600087803b1580156110ff57600080fd5b505af1158015611113573d6000803e3d6000fd5b50505050336005600085815260200190815260200160002060040160006101000a81548173ffffffffffffffffffffffffffffffffffffffff021916908373ffffffffffffffffffffffffffffffffffffffff16021790555060016005600085815260200190815260200160002060060160006101000a81548160ff0219169083151502179055506111a5600261122c565b600360009054906101000a900473ffffffffffffffffffffffffffffffffffffffff1673ffffffffffffffffffffffffffffffffffffffff166108fc6004549081150290604051600060405180830381858888f1935050505015801561120f573d6000803e3d6000fd5b50505060016000819055505050565b600081600001549050919050565b6001816000016000828254019250508190555050565b6040518060e0016040528060008152602001600073ffffffffffffffffffffffffffffffffffffffff16815260200160008152602001600073ffffffffffffffffffffffffffffffffffffffff168152602001600073ffffffffffffffffffffffffffffffffffffffff168152602001600081526020016000151581525090565b6000813590506112d281611966565b92915050565b6000813590506112e78161197d565b92915050565b6000806040838503121561130057600080fd5b600061130e858286016112c3565b925050602061131f858286016112d8565b9150509250929050565b60008060006060848603121561133e57600080fd5b600061134c868287016112c3565b935050602061135d868287016112d8565b925050604061136e868287016112d8565b9150509250925092565b600061138483836114c5565b60e08301905092915050565b61139981611790565b82525050565b6113a88161177e565b82525050565b6113b78161177e565b82525050565b60006113c8826116ba565b6113d281856116d2565b93506113dd836116aa565b8060005b8381101561140e5781516113f58882611378565b9750611400836116c5565b9250506001810190506113e1565b5085935050505092915050565b611424816117a2565b82525050565b611433816117a2565b82525050565b60006114466040836116e3565b915061145182611850565b604082019050919050565b60006114696044836116e3565b91506114748261189f565b606082019050919050565b600061148c601f836116e3565b915061149782611914565b602082019050919050565b60006114af601c836116e3565b91506114ba8261193d565b602082019050919050565b60e0820160008201516114db6000850182611553565b5060208201516114ee602085018261139f565b5060408201516115016040850182611553565b5060608201516115146060850182611390565b5060808201516115276080850182611390565b5060a082015161153a60a0850182611553565b5060c082015161154d60c085018261141b565b50505050565b61155c816117ce565b82525050565b61156b816117ce565b82525050565b600060608201905061158660008301866113ae565b61159360208301856113ae565b6115a06040830184611562565b949350505050565b60006080820190506115bd60008301876113ae565b6115ca60208301866113ae565b6115d76040830185611562565b6115e4606083018461142a565b95945050505050565b6000602082019050818103600083015261160781846113bd565b905092915050565b6000602082019050818103600083015261162881611439565b9050919050565b600060208201905081810360008301526116488161145c565b9050919050565b600060208201905081810360008301526116688161147f565b9050919050565b60006020820190508181036000830152611688816114a2565b9050919050565b60006020820190506116a46000830184611562565b92915050565b6000819050602082019050919050565b600081519050919050565b6000602082019050919050565b600082825260208201905092915050565b600082825260208201905092915050565b60006116ff826117ce565b915061170a836117ce565b9250827fffffffffffffffffffffffffffffffffffffffffffffffffffffffffffffffff0382111561173f5761173e611821565b5b828201905092915050565b6000611755826117ce565b9150611760836117ce565b92508282101561177357611772611821565b5b828203905092915050565b6000611789826117ae565b9050919050565b600061179b826117ae565b9050919050565b60008115159050919050565b600073ffffffffffffffffffffffffffffffffffffffff82169050919050565b6000819050919050565b60006117e3826117ce565b91507fffffffffffffffffffffffffffffffffffffffffffffffffffffffffffffffff82141561181657611815611821565b5b600182019050919050565b7f4e487b7100000000000000000000000000000000000000000000000000000000600052601160045260246000fd5b7f506c65617365207375626d6974207468652061736b696e67207072696365206960008201527f6e206f7264657220746f20636f6d706c65746520746865207075726368617365602082015250565b7f546865206c697374696e67207072696365206d7573742062652074686520736160008201527f6d6520617320746865206d61726b657420706c616365206c697374696e67207060208201527f7269636500000000000000000000000000000000000000000000000000000000604082015250565b7f5265656e7472616e637947756172643a207265656e7472616e742063616c6c00600082015250565b7f5072696365206d757374206265206174206c6561737420312077656900000000600082015250565b61196f8161177e565b811461197a57600080fd5b50565b611986816117ce565b811461199157600080fd5b5056fea26469706673582212204606fea223859c1a987beea9307f1fee8f397390c4e77c0fd5f5f1a4e148e34264736f6c63430008040033",
  "linkReferences": {},
  "deployedLinkReferences": {}
}