{
  "_format": "hh-sol-artifact-1",
  "contractName": "NFTMarket",
  "sourceName": "contracts/NFTMarket.sol",
  "abi": [
    {
      "inputs": [],
      "stateMutability": "nonpayable",
      "type": "constructor"
    },
    {
      "anonymous": false,
      "inputs": [
        {
          "indexed": true,
          "internalType": "uint256",
          "name": "itemId",
          "type": "uint256"
        },
        {
          "indexed": true,
          "internalType": "address",
          "name": "nftContract",
          "type": "address"
        },
        {
          "indexed": true,
          "internalType": "uint256",
          "name": "tokenId",
          "type": "uint256"
        },
        {
          "indexed": false,
          "internalType": "address",
          "name": "seller",
          "type": "address"
        },
        {
          "indexed": false,
          "internalType": "address",
          "name": "owner",
          "type": "address"
        },
        {
          "indexed": false,
          "internalType": "uint256",
          "name": "price",
          "type": "uint256"
        },
        {
          "indexed": false,
          "internalType": "bool",
          "name": "sold",
          "type": "bool"
        }
      ],
      "name": "MarketItemCreated",
      "type": "event"
    },
    {
      "inputs": [
        {
          "internalType": "address",
          "name": "nftContract",
          "type": "address"
        },
        {
          "internalType": "uint256",
          "name": "tokenId",
          "type": "uint256"
        },
        {
          "internalType": "uint256",
          "name": "price",
          "type": "uint256"
        }
      ],
      "name": "createMarketItem",
      "outputs": [],
      "stateMutability": "payable",
      "type": "function"
    },
    {
      "inputs": [
        {
          "internalType": "address",
          "name": "nftContract",
          "type": "address"
        },
        {
          "internalType": "uint256",
          "name": "itemId",
          "type": "uint256"
        }
      ],
      "name": "createMarketSale",
      "outputs": [],
      "stateMutability": "payable",
      "type": "function"
    },
    {
      "inputs": [
        {
          "internalType": "address",
          "name": "contractAddr",
          "type": "address"
        },
        {
          "internalType": "uint256",
          "name": "tokenId",
          "type": "uint256"
        }
      ],
      "name": "fetchItemByContractAddAndTokenID",
      "outputs": [
        {
          "components": [
            {
              "internalType": "uint256",
              "name": "itemId",
              "type": "uint256"
            },
            {
              "internalType": "address",
              "name": "nftContract",
              "type": "address"
            },
            {
              "internalType": "uint256",
              "name": "tokenId",
              "type": "uint256"
            },
            {
              "internalType": "address payable",
              "name": "seller",
              "type": "address"
            },
            {
              "internalType": "address payable",
              "name": "owner",
              "type": "address"
            },
            {
              "internalType": "uint256",
              "name": "price",
              "type": "uint256"
            },
            {
              "internalType": "bool",
              "name": "sold",
              "type": "bool"
            }
          ],
          "internalType": "struct NFTMarket.MarketItem",
          "name": "",
          "type": "tuple"
        }
      ],
      "stateMutability": "view",
      "type": "function"
    },
    {
      "inputs": [],
      "name": "fetchMarketItems",
      "outputs": [
        {
          "components": [
            {
              "internalType": "uint256",
              "name": "itemId",
              "type": "uint256"
            },
            {
              "internalType": "address",
              "name": "nftContract",
              "type": "address"
            },
            {
              "internalType": "uint256",
              "name": "tokenId",
              "type": "uint256"
            },
            {
              "internalType": "address payable",
              "name": "seller",
              "type": "address"
            },
            {
              "internalType": "address payable",
              "name": "owner",
              "type": "address"
            },
            {
              "internalType": "uint256",
              "name": "price",
              "type": "uint256"
            },
            {
              "internalType": "bool",
              "name": "sold",
              "type": "bool"
            }
          ],
          "internalType": "struct NFTMarket.MarketItem[]",
          "name": "",
          "type": "tuple[]"
        }
      ],
      "stateMutability": "view",
      "type": "function"
    },
    {
      "inputs": [],
      "name": "fetchMyListedNFTs",
      "outputs": [
        {
          "components": [
            {
              "internalType": "uint256",
              "name": "itemId",
              "type": "uint256"
            },
            {
              "internalType": "address",
              "name": "nftContract",
              "type": "address"
            },
            {
              "internalType": "uint256",
              "name": "tokenId",
              "type": "uint256"
            },
            {
              "internalType": "address payable",
              "name": "seller",
              "type": "address"
            },
            {
              "internalType": "address payable",
              "name": "owner",
              "type": "address"
            },
            {
              "internalType": "uint256",
              "name": "price",
              "type": "uint256"
            },
            {
              "internalType": "bool",
              "name": "sold",
              "type": "bool"
            }
          ],
          "internalType": "struct NFTMarket.MarketItem[]",
          "name": "",
          "type": "tuple[]"
        }
      ],
      "stateMutability": "view",
      "type": "function"
    },
    {
      "inputs": [],
      "name": "fetchMyNFTs",
      "outputs": [
        {
          "components": [
            {
              "internalType": "uint256",
              "name": "itemId",
              "type": "uint256"
            },
            {
              "internalType": "address",
              "name": "nftContract",
              "type": "address"
            },
            {
              "internalType": "uint256",
              "name": "tokenId",
              "type": "uint256"
            },
            {
              "internalType": "address payable",
              "name": "seller",
              "type": "address"
            },
            {
              "internalType": "address payable",
              "name": "owner",
              "type": "address"
            },
            {
              "internalType": "uint256",
              "name": "price",
              "type": "uint256"
            },
            {
              "internalType": "bool",
              "name": "sold",
              "type": "bool"
            }
          ],
          "internalType": "struct NFTMarket.MarketItem[]",
          "name": "",
          "type": "tuple[]"
        }
      ],
      "stateMutability": "view",
      "type": "function"
    },
    {
      "inputs": [],
      "name": "getListingPrice",
      "outputs": [
        {
          "internalType": "uint256",
          "name": "",
          "type": "uint256"
        }
      ],
      "stateMutability": "view",
      "type": "function"
    }
  ],
  "bytecode": "0x60806040526658d15e1762800060045534801561001b57600080fd5b50600160008190555033600360006101000a81548173ffffffffffffffffffffffffffffffffffffffff021916908373ffffffffffffffffffffffffffffffffffffffff160217905550611ebc806100746000396000f3fe6080604052600436106100705760003560e01c8063202e37401161004e578063202e3740146100f65780633afef9b81461012157806358eb2df51461015e578063c23b139e1461017a57610070565b80630e2cb944146100755780630f08efe0146100a057806312e85585146100cb575b600080fd5b34801561008157600080fd5b5061008a610196565b6040516100979190611a7b565b60405180910390f35b3480156100ac57600080fd5b506100b5610530565b6040516100c29190611a7b565b60405180910390f35b3480156100d757600080fd5b506100e0610846565b6040516100ed9190611b58565b60405180910390f35b34801561010257600080fd5b5061010b610850565b6040516101189190611a7b565b60405180910390f35b34801561012d57600080fd5b50610148600480360381019061014391906116ca565b610bea565b6040516101559190611b3d565b60405180910390f35b61017860048036038101906101739190611706565b610e71565b005b610194600480360381019061018f91906116ca565b611295565b005b606060006101a460016115bd565b905060008060005b8381101561024d573373ffffffffffffffffffffffffffffffffffffffff16600560006001846101dc9190611bbd565b815260200190815260200160002060030160009054906101000a900473ffffffffffffffffffffffffffffffffffffffff1673ffffffffffffffffffffffffffffffffffffffff16141561023a576001836102379190611bbd565b92505b808061024590611ca1565b9150506101ac565b5060008267ffffffffffffffff811115610290577f4e487b7100000000000000000000000000000000000000000000000000000000600052604160045260246000fd5b6040519080825280602002602001820160405280156102c957816020015b6102b66115e1565b8152602001906001900390816102ae5790505b50905060005b84811015610525573373ffffffffffffffffffffffffffffffffffffffff16600560006001846102ff9190611bbd565b815260200190815260200160002060030160009054906101000a900473ffffffffffffffffffffffffffffffffffffffff1673ffffffffffffffffffffffffffffffffffffffff16141561051257600060018261035c9190611bbd565b90506000600560008381526020019081526020016000209050806040518060e0016040529081600082015481526020016001820160009054906101000a900473ffffffffffffffffffffffffffffffffffffffff1673ffffffffffffffffffffffffffffffffffffffff1673ffffffffffffffffffffffffffffffffffffffff168152602001600282015481526020016003820160009054906101000a900473ffffffffffffffffffffffffffffffffffffffff1673ffffffffffffffffffffffffffffffffffffffff1673ffffffffffffffffffffffffffffffffffffffff1681526020016004820160009054906101000a900473ffffffffffffffffffffffffffffffffffffffff1673ffffffffffffffffffffffffffffffffffffffff1673ffffffffffffffffffffffffffffffffffffffff168152602001600582015481526020016006820160009054906101000a900460ff1615151515815250508486815181106104f5577f4e487b7100000000000000000000000000000000000000000000000000000000600052603260045260246000fd5b602002602001018190525060018561050d9190611bbd565b945050505b808061051d90611ca1565b9150506102cf565b508094505050505090565b6060600061053e60016115bd565b9050600061054c60026115bd565b61055660016115bd565b6105609190611c13565b90506000808267ffffffffffffffff8111156105a5577f4e487b7100000000000000000000000000000000000000000000000000000000600052604160045260246000fd5b6040519080825280602002602001820160405280156105de57816020015b6105cb6115e1565b8152602001906001900390816105c35790505b50905060005b8481101561083b57600073ffffffffffffffffffffffffffffffffffffffff16600560006001846106159190611bbd565b815260200190815260200160002060040160009054906101000a900473ffffffffffffffffffffffffffffffffffffffff1673ffffffffffffffffffffffffffffffffffffffff1614156108285760006001826106729190611bbd565b90506000600560008381526020019081526020016000209050806040518060e0016040529081600082015481526020016001820160009054906101000a900473ffffffffffffffffffffffffffffffffffffffff1673ffffffffffffffffffffffffffffffffffffffff1673ffffffffffffffffffffffffffffffffffffffff168152602001600282015481526020016003820160009054906101000a900473ffffffffffffffffffffffffffffffffffffffff1673ffffffffffffffffffffffffffffffffffffffff1673ffffffffffffffffffffffffffffffffffffffff1681526020016004820160009054906101000a900473ffffffffffffffffffffffffffffffffffffffff1673ffffffffffffffffffffffffffffffffffffffff1673ffffffffffffffffffffffffffffffffffffffff168152602001600582015481526020016006820160009054906101000a900460ff16151515158152505084868151811061080b577f4e487b7100000000000000000000000000000000000000000000000000000000600052603260045260246000fd5b60200260200101819052506001856108239190611bbd565b945050505b808061083390611ca1565b9150506105e4565b508094505050505090565b6000600454905090565b6060600061085e60016115bd565b905060008060005b83811015610907573373ffffffffffffffffffffffffffffffffffffffff16600560006001846108969190611bbd565b815260200190815260200160002060040160009054906101000a900473ffffffffffffffffffffffffffffffffffffffff1673ffffffffffffffffffffffffffffffffffffffff1614156108f4576001836108f19190611bbd565b92505b80806108ff90611ca1565b915050610866565b5060008267ffffffffffffffff81111561094a577f4e487b7100000000000000000000000000000000000000000000000000000000600052604160045260246000fd5b60405190808252806020026020018201604052801561098357816020015b6109706115e1565b8152602001906001900390816109685790505b50905060005b84811015610bdf573373ffffffffffffffffffffffffffffffffffffffff16600560006001846109b99190611bbd565b815260200190815260200160002060040160009054906101000a900473ffffffffffffffffffffffffffffffffffffffff1673ffffffffffffffffffffffffffffffffffffffff161415610bcc576000600182610a169190611bbd565b90506000600560008381526020019081526020016000209050806040518060e0016040529081600082015481526020016001820160009054906101000a900473ffffffffffffffffffffffffffffffffffffffff1673ffffffffffffffffffffffffffffffffffffffff1673ffffffffffffffffffffffffffffffffffffffff168152602001600282015481526020016003820160009054906101000a900473ffffffffffffffffffffffffffffffffffffffff1673ffffffffffffffffffffffffffffffffffffffff1673ffffffffffffffffffffffffffffffffffffffff1681526020016004820160009054906101000a900473ffffffffffffffffffffffffffffffffffffffff1673ffffffffffffffffffffffffffffffffffffffff1673ffffffffffffffffffffffffffffffffffffffff168152602001600582015481526020016006820160009054906101000a900460ff161515151581525050848681518110610baf577f4e487b7100000000000000000000000000000000000000000000000000000000600052603260045260246000fd5b6020026020010181905250600185610bc79190611bbd565b945050505b8080610bd790611ca1565b915050610989565b508094505050505090565b610bf26115e1565b6000610bfe60016115bd565b905060005b81811015610e2f578473ffffffffffffffffffffffffffffffffffffffff1660056000600184610c339190611bbd565b815260200190815260200160002060010160009054906101000a900473ffffffffffffffffffffffffffffffffffffffff1673ffffffffffffffffffffffffffffffffffffffff16148015610ca957508360056000600184610c959190611bbd565b815260200190815260200160002060020154145b15610e1c5760056000600183610cbf9190611bbd565b81526020019081526020016000206040518060e0016040529081600082015481526020016001820160009054906101000a900473ffffffffffffffffffffffffffffffffffffffff1673ffffffffffffffffffffffffffffffffffffffff1673ffffffffffffffffffffffffffffffffffffffff168152602001600282015481526020016003820160009054906101000a900473ffffffffffffffffffffffffffffffffffffffff1673ffffffffffffffffffffffffffffffffffffffff1673ffffffffffffffffffffffffffffffffffffffff1681526020016004820160009054906101000a900473ffffffffffffffffffffffffffffffffffffffff1673ffffffffffffffffffffffffffffffffffffffff1673ffffffffffffffffffffffffffffffffffffffff168152602001600582015481526020016006820160009054906101000a900460ff16151515158152505092505050610e6b565b8080610e2790611ca1565b915050610c03565b506040517f08c379a0000000000000000000000000000000000000000000000000000000008152600401610e6290611a9d565b60405180910390fd5b92915050565b60026000541415610eb7576040517f08c379a0000000000000000000000000000000000000000000000000000000008152600401610eae90611afd565b60405180910390fd5b600260008190555060008111610f02576040517f08c379a0000000000000000000000000000000000000000000000000000000008152600401610ef990611b1d565b60405180910390fd5b6004543414610f46576040517f08c379a0000000000000000000000000000000000000000000000000000000008152600401610f3d90611add565b60405180910390fd5b8273ffffffffffffffffffffffffffffffffffffffff16636352211e836040518263ffffffff1660e01b8152600401610f7f9190611b58565b60206040518083038186803b158015610f9757600080fd5b505afa158015610fab573d6000803e3d6000fd5b505050506040513d601f19601f82011682018060405250810190610fcf91906116a1565b73ffffffffffffffffffffffffffffffffffffffff163373ffffffffffffffffffffffffffffffffffffffff161461100657600080fd5b61101060016115cb565b600061101c60016115bd565b90506040518060e001604052808281526020018573ffffffffffffffffffffffffffffffffffffffff1681526020018481526020013373ffffffffffffffffffffffffffffffffffffffff168152602001600073ffffffffffffffffffffffffffffffffffffffff16815260200183815260200160001515815250600560008381526020019081526020016000206000820151816000015560208201518160010160006101000a81548173ffffffffffffffffffffffffffffffffffffffff021916908373ffffffffffffffffffffffffffffffffffffffff1602179055506040820151816002015560608201518160030160006101000a81548173ffffffffffffffffffffffffffffffffffffffff021916908373ffffffffffffffffffffffffffffffffffffffff16021790555060808201518160040160006101000a81548173ffffffffffffffffffffffffffffffffffffffff021916908373ffffffffffffffffffffffffffffffffffffffff16021790555060a0820151816005015560c08201518160060160006101000a81548160ff0219169083151502179055509050508373ffffffffffffffffffffffffffffffffffffffff166323b872dd3330866040518463ffffffff1660e01b81526004016111fd939291906119ff565b600060405180830381600087803b15801561121757600080fd5b505af115801561122b573d6000803e3d6000fd5b50505050828473ffffffffffffffffffffffffffffffffffffffff16827f045dfa01dcba2b36aba1d3dc4a874f4b0c5d2fbeb8d2c4b34a7d88c8d8f929d133600087600060405161127f9493929190611a36565b60405180910390a4506001600081905550505050565b600260005414156112db576040517f08c379a00000000000000000000000000000000000000000000000000000000081526004016112d290611afd565b60405180910390fd5b600260008190555060006005600083815260200190815260200160002060050154905060006005600084815260200190815260200160002060020154905081341461135b576040517f08c379a000000000000000000000000000000000000000000000000000000000815260040161135290611abd565b60405180910390fd5b6005600084815260200190815260200160002060030160009054906101000a900473ffffffffffffffffffffffffffffffffffffffff1673ffffffffffffffffffffffffffffffffffffffff163373ffffffffffffffffffffffffffffffffffffffff1614156113ca57600080fd5b6005600084815260200190815260200160002060030160009054906101000a900473ffffffffffffffffffffffffffffffffffffffff1673ffffffffffffffffffffffffffffffffffffffff166108fc349081150290604051600060405180830381858888f19350505050158015611446573d6000803e3d6000fd5b508373ffffffffffffffffffffffffffffffffffffffff166323b872dd3033846040518463ffffffff1660e01b8152600401611484939291906119ff565b600060405180830381600087803b15801561149e57600080fd5b505af11580156114b2573d6000803e3d6000fd5b50505050336005600085815260200190815260200160002060040160006101000a81548173ffffffffffffffffffffffffffffffffffffffff021916908373ffffffffffffffffffffffffffffffffffffffff16021790555060016005600085815260200190815260200160002060060160006101000a81548160ff02191690831515021790555061154460026115cb565b600360009054906101000a900473ffffffffffffffffffffffffffffffffffffffff1673ffffffffffffffffffffffffffffffffffffffff166108fc6004549081150290604051600060405180830381858888f193505050501580156115ae573d6000803e3d6000fd5b50505060016000819055505050565b600081600001549050919050565b6001816000016000828254019250508190555050565b6040518060e0016040528060008152602001600073ffffffffffffffffffffffffffffffffffffffff16815260200160008152602001600073ffffffffffffffffffffffffffffffffffffffff168152602001600073ffffffffffffffffffffffffffffffffffffffff168152602001600081526020016000151581525090565b60008135905061167181611e58565b92915050565b60008151905061168681611e58565b92915050565b60008135905061169b81611e6f565b92915050565b6000602082840312156116b357600080fd5b60006116c184828501611677565b91505092915050565b600080604083850312156116dd57600080fd5b60006116eb85828601611662565b92505060206116fc8582860161168c565b9150509250929050565b60008060006060848603121561171b57600080fd5b600061172986828701611662565b935050602061173a8682870161168c565b925050604061174b8682870161168c565b9150509250925092565b600061176183836118c5565b60e08301905092915050565b61177681611c59565b82525050565b61178581611c47565b82525050565b61179481611c47565b82525050565b60006117a582611b83565b6117af8185611b9b565b93506117ba83611b73565b8060005b838110156117eb5781516117d28882611755565b97506117dd83611b8e565b9250506001810190506117be565b5085935050505092915050565b61180181611c6b565b82525050565b61181081611c6b565b82525050565b6000611823600983611bac565b915061182e82611d19565b602082019050919050565b6000611846604083611bac565b915061185182611d42565b604082019050919050565b6000611869604483611bac565b915061187482611d91565b606082019050919050565b600061188c601f83611bac565b915061189782611e06565b602082019050919050565b60006118af601c83611bac565b91506118ba82611e2f565b602082019050919050565b60e0820160008201516118db60008501826119e1565b5060208201516118ee602085018261177c565b50604082015161190160408501826119e1565b506060820151611914606085018261176d565b506080820151611927608085018261176d565b5060a082015161193a60a08501826119e1565b5060c082015161194d60c08501826117f8565b50505050565b60e08201600082015161196960008501826119e1565b50602082015161197c602085018261177c565b50604082015161198f60408501826119e1565b5060608201516119a2606085018261176d565b5060808201516119b5608085018261176d565b5060a08201516119c860a08501826119e1565b5060c08201516119db60c08501826117f8565b50505050565b6119ea81611c97565b82525050565b6119f981611c97565b82525050565b6000606082019050611a14600083018661178b565b611a21602083018561178b565b611a2e60408301846119f0565b949350505050565b6000608082019050611a4b600083018761178b565b611a58602083018661178b565b611a6560408301856119f0565b611a726060830184611807565b95945050505050565b60006020820190508181036000830152611a95818461179a565b905092915050565b60006020820190508181036000830152611ab681611816565b9050919050565b60006020820190508181036000830152611ad681611839565b9050919050565b60006020820190508181036000830152611af68161185c565b9050919050565b60006020820190508181036000830152611b168161187f565b9050919050565b60006020820190508181036000830152611b36816118a2565b9050919050565b600060e082019050611b526000830184611953565b92915050565b6000602082019050611b6d60008301846119f0565b92915050565b6000819050602082019050919050565b600081519050919050565b6000602082019050919050565b600082825260208201905092915050565b600082825260208201905092915050565b6000611bc882611c97565b9150611bd383611c97565b9250827fffffffffffffffffffffffffffffffffffffffffffffffffffffffffffffffff03821115611c0857611c07611cea565b5b828201905092915050565b6000611c1e82611c97565b9150611c2983611c97565b925082821015611c3c57611c3b611cea565b5b828203905092915050565b6000611c5282611c77565b9050919050565b6000611c6482611c77565b9050919050565b60008115159050919050565b600073ffffffffffffffffffffffffffffffffffffffff82169050919050565b6000819050919050565b6000611cac82611c97565b91507fffffffffffffffffffffffffffffffffffffffffffffffffffffffffffffffff821415611cdf57611cde611cea565b5b600182019050919050565b7f4e487b7100000000000000000000000000000000000000000000000000000000600052601160045260246000fd5b7f4e6f7420666f756e640000000000000000000000000000000000000000000000600082015250565b7f506c65617365207375626d6974207468652061736b696e67207072696365206960008201527f6e206f7264657220746f20636f6d706c65746520746865207075726368617365602082015250565b7f546865206c697374696e67207072696365206d7573742062652074686520736160008201527f6d6520617320746865206d61726b657420706c616365206c697374696e67207060208201527f7269636500000000000000000000000000000000000000000000000000000000604082015250565b7f5265656e7472616e637947756172643a207265656e7472616e742063616c6c00600082015250565b7f5072696365206d757374206265206174206c6561737420312077656900000000600082015250565b611e6181611c47565b8114611e6c57600080fd5b50565b611e7881611c97565b8114611e8357600080fd5b5056fea2646970667358221220df20a7962a6b67eae4f1cf265728c70b41a7011e5794d05fc57fdf960abff04e64736f6c63430008040033",
  "linkReferences": {},
  "deployedLinkReferences": {}
}