{
  "_format": "hh-sol-artifact-1",
  "contractName": "NFTMarket",
  "sourceName": "contracts/NFTMarket.sol",
  "abi": [
    {
      "inputs": [],
      "stateMutability": "nonpayable",
      "type": "constructor"
    },
    {
      "anonymous": false,
      "inputs": [
        {
          "indexed": true,
          "internalType": "uint256",
          "name": "itemId",
          "type": "uint256"
        },
        {
          "indexed": true,
          "internalType": "address",
          "name": "nftContract",
          "type": "address"
        },
        {
          "indexed": true,
          "internalType": "uint256",
          "name": "tokenId",
          "type": "uint256"
        },
        {
          "indexed": false,
          "internalType": "address",
          "name": "seller",
          "type": "address"
        },
        {
          "indexed": false,
          "internalType": "address",
          "name": "owner",
          "type": "address"
        },
        {
          "indexed": false,
          "internalType": "uint256",
          "name": "price",
          "type": "uint256"
        },
        {
          "indexed": false,
          "internalType": "bool",
          "name": "sold",
          "type": "bool"
        }
      ],
      "name": "MarketItemCreated",
      "type": "event"
    },
    {
      "inputs": [
        {
          "internalType": "address",
          "name": "nftContract",
          "type": "address"
        },
        {
          "internalType": "uint256",
          "name": "tokenId",
          "type": "uint256"
        },
        {
          "internalType": "uint256",
          "name": "price",
          "type": "uint256"
        }
      ],
      "name": "createMarketItem",
      "outputs": [],
      "stateMutability": "payable",
      "type": "function"
    },
    {
      "inputs": [
        {
          "internalType": "address",
          "name": "nftContract",
          "type": "address"
        },
        {
          "internalType": "uint256",
          "name": "itemId",
          "type": "uint256"
        }
      ],
      "name": "createMarketSale",
      "outputs": [],
      "stateMutability": "payable",
      "type": "function"
    },
    {
      "inputs": [
        {
          "internalType": "address",
          "name": "contractAddr",
          "type": "address"
        },
        {
          "internalType": "uint256",
          "name": "tokenId",
          "type": "uint256"
        }
      ],
      "name": "fetchItemByContractAddAndTokenID",
      "outputs": [
        {
          "components": [
            {
              "internalType": "uint256",
              "name": "itemId",
              "type": "uint256"
            },
            {
              "internalType": "address",
              "name": "nftContract",
              "type": "address"
            },
            {
              "internalType": "uint256",
              "name": "tokenId",
              "type": "uint256"
            },
            {
              "internalType": "address payable",
              "name": "seller",
              "type": "address"
            },
            {
              "internalType": "address payable",
              "name": "owner",
              "type": "address"
            },
            {
              "internalType": "uint256",
              "name": "price",
              "type": "uint256"
            },
            {
              "internalType": "bool",
              "name": "sold",
              "type": "bool"
            }
          ],
          "internalType": "struct NFTMarket.MarketItem",
          "name": "",
          "type": "tuple"
        }
      ],
      "stateMutability": "view",
      "type": "function"
    },
    {
      "inputs": [],
      "name": "fetchMarketItems",
      "outputs": [
        {
          "components": [
            {
              "internalType": "uint256",
              "name": "itemId",
              "type": "uint256"
            },
            {
              "internalType": "address",
              "name": "nftContract",
              "type": "address"
            },
            {
              "internalType": "uint256",
              "name": "tokenId",
              "type": "uint256"
            },
            {
              "internalType": "address payable",
              "name": "seller",
              "type": "address"
            },
            {
              "internalType": "address payable",
              "name": "owner",
              "type": "address"
            },
            {
              "internalType": "uint256",
              "name": "price",
              "type": "uint256"
            },
            {
              "internalType": "bool",
              "name": "sold",
              "type": "bool"
            }
          ],
          "internalType": "struct NFTMarket.MarketItem[]",
          "name": "",
          "type": "tuple[]"
        }
      ],
      "stateMutability": "view",
      "type": "function"
    },
    {
      "inputs": [],
      "name": "fetchMyListedNFTs",
      "outputs": [
        {
          "components": [
            {
              "internalType": "uint256",
              "name": "itemId",
              "type": "uint256"
            },
            {
              "internalType": "address",
              "name": "nftContract",
              "type": "address"
            },
            {
              "internalType": "uint256",
              "name": "tokenId",
              "type": "uint256"
            },
            {
              "internalType": "address payable",
              "name": "seller",
              "type": "address"
            },
            {
              "internalType": "address payable",
              "name": "owner",
              "type": "address"
            },
            {
              "internalType": "uint256",
              "name": "price",
              "type": "uint256"
            },
            {
              "internalType": "bool",
              "name": "sold",
              "type": "bool"
            }
          ],
          "internalType": "struct NFTMarket.MarketItem[]",
          "name": "",
          "type": "tuple[]"
        }
      ],
      "stateMutability": "view",
      "type": "function"
    },
    {
      "inputs": [],
      "name": "fetchMyNFTs",
      "outputs": [
        {
          "components": [
            {
              "internalType": "uint256",
              "name": "itemId",
              "type": "uint256"
            },
            {
              "internalType": "address",
              "name": "nftContract",
              "type": "address"
            },
            {
              "internalType": "uint256",
              "name": "tokenId",
              "type": "uint256"
            },
            {
              "internalType": "address payable",
              "name": "seller",
              "type": "address"
            },
            {
              "internalType": "address payable",
              "name": "owner",
              "type": "address"
            },
            {
              "internalType": "uint256",
              "name": "price",
              "type": "uint256"
            },
            {
              "internalType": "bool",
              "name": "sold",
              "type": "bool"
            }
          ],
          "internalType": "struct NFTMarket.MarketItem[]",
          "name": "",
          "type": "tuple[]"
        }
      ],
      "stateMutability": "view",
      "type": "function"
    },
    {
      "inputs": [
        {
          "internalType": "address",
          "name": "userAddress",
          "type": "address"
        }
      ],
      "name": "fetchUserListedNFTs",
      "outputs": [
        {
          "components": [
            {
              "internalType": "uint256",
              "name": "itemId",
              "type": "uint256"
            },
            {
              "internalType": "address",
              "name": "nftContract",
              "type": "address"
            },
            {
              "internalType": "uint256",
              "name": "tokenId",
              "type": "uint256"
            },
            {
              "internalType": "address payable",
              "name": "seller",
              "type": "address"
            },
            {
              "internalType": "address payable",
              "name": "owner",
              "type": "address"
            },
            {
              "internalType": "uint256",
              "name": "price",
              "type": "uint256"
            },
            {
              "internalType": "bool",
              "name": "sold",
              "type": "bool"
            }
          ],
          "internalType": "struct NFTMarket.MarketItem[]",
          "name": "",
          "type": "tuple[]"
        }
      ],
      "stateMutability": "view",
      "type": "function"
    },
    {
      "inputs": [],
      "name": "getListingPrice",
      "outputs": [
        {
          "internalType": "uint256",
          "name": "",
          "type": "uint256"
        }
      ],
      "stateMutability": "view",
      "type": "function"
    }
  ],
  "bytecode": "0x60806040526658d15e176280006004553480156200001c57600080fd5b506001600081905550620000597f5d051db06f2a3cae657cf812db3f00bb74483c6a5e6f31fb6bea2c5229efd75d60001b6200010860201b60201c565b6200008d7f1aab10a832a154c9898e145e636a2af0a3908818ee7e5883efb7a387e97cce4960001b6200010860201b60201c565b620000c17f3bc1d537519e8fe58a0a1416d3942507f3c42a178593aacbaf46d152228876ce60001b6200010860201b60201c565b33600360006101000a81548173ffffffffffffffffffffffffffffffffffffffff021916908373ffffffffffffffffffffffffffffffffffffffff1602179055506200010b565b50565b614524806200011b6000396000f3fe60806040526004361061007b5760003560e01c80632b600ced1161004e5780632b600ced1461012c5780633afef9b81461016957806358eb2df5146101a6578063c23b139e146101c25761007b565b80630e2cb944146100805780630f08efe0146100ab57806312e85585146100d6578063202e374014610101575b600080fd5b34801561008c57600080fd5b506100956101de565b6040516100a291906140e3565b60405180910390f35b3480156100b757600080fd5b506100c0610c21565b6040516100cd91906140e3565b60405180910390f35b3480156100e257600080fd5b506100eb611388565b6040516100f891906141c0565b60405180910390f35b34801561010d57600080fd5b50610116611416565b60405161012391906140e3565b60405180910390f35b34801561013857600080fd5b50610153600480360381019061014e9190613ce0565b611d67565b60405161016091906140e3565b60405180910390f35b34801561017557600080fd5b50610190600480360381019061018b9190613d32565b6127ac565b60405161019d91906141a5565b60405180910390f35b6101c060048036038101906101bb9190613d6e565b612c6f565b005b6101dc60048036038101906101d79190613d32565b613485565b005b606061020c7fa517689e1de6e3db0d8a9bab1e90f79f4af2612b79428b42451c8280e91120dd60001b613bf9565b6102387f923ba24aeff9f63c1a52dddb01a0e5fbc6347bb96fe721bd44675bc8a15ad59360001b613bf9565b6102647f2bf25bc8386e14e542e1a61cc455330db3a0d26b5fdd7153a95caa8a8d96bff260001b613bf9565b60006102706001613bfc565b905061029e7f69b64c9a9baa3bd9ffa992b157a329e8508de2e18618fa022a86dff3a6b097fd60001b613bf9565b6102ca7fee273cf5edb6084150fe551830f67c247e768c115954b69e88c12c92eb3fe5cb60001b613bf9565b60006102f87f21e65bb976d7081ac956bbd3d2deea134ebbc50969ca5d095be36c12392c23a660001b613bf9565b6103247f36e135ddefc79d66b0bf4424e7e55330c3d8c5090e71ff02d08fabd6b775976860001b613bf9565b60006103527feaac9aca3b741d2e3b1caf0aaadf24d48e75534ae27f7e82c0a547fac8398e1360001b613bf9565b61037e7f4ab88b7885f7eaa9db93ab41f664a21d73212fd3800d172bfb90cfc500cd1b0f60001b613bf9565b60005b838110156105a8576103b57f291223b90efbdb636e8448d330da54610868c350dadd2cbb790f00aa2c81416660001b613bf9565b6103e17f64cede9b66a84efcb074065606644a49f517d418c157832e9567a3a05203740e60001b613bf9565b3373ffffffffffffffffffffffffffffffffffffffff16600560006001846104099190614225565b815260200190815260200160002060030160009054906101000a900473ffffffffffffffffffffffffffffffffffffffff1673ffffffffffffffffffffffffffffffffffffffff161480156104cb57503073ffffffffffffffffffffffffffffffffffffffff16600560006001846104819190614225565b815260200190815260200160002060040160009054906101000a900473ffffffffffffffffffffffffffffffffffffffff1673ffffffffffffffffffffffffffffffffffffffff16145b15610568576104fc7fe4d2f0c7525cf2a576bfd4bb2b751bdfa92e35ea2d4457cd3eb3a483cd5d099d60001b613bf9565b6105287fe7c35886bee8a6456c737d01394e11a6039a83f452b3fbda9c23cd890391a4bb60001b613bf9565b6105547f64546318a35cfa8ee57984874364f8fca5334eb48d280d9795c79caad7bf544260001b613bf9565b6001836105619190614225565b9250610595565b6105947f5b8b36f1a8928a3061a32b27c39e26a9f549317ef949d95b1f3eaf52e1f4b5f960001b613bf9565b5b80806105a090614309565b915050610381565b506105d57f81b27ba846d6f9b49d6941f8e4a1e7fafa2a51a71814e5576f8aee45aa0c129560001b613bf9565b6106017f4ac32f106ab4060d8683bf15ffb637103b962db424f7f982c541445c1100446560001b613bf9565b60008267ffffffffffffffff811115610643577f4e487b7100000000000000000000000000000000000000000000000000000000600052604160045260246000fd5b60405190808252806020026020018201604052801561067c57816020015b610669613c20565b8152602001906001900390816106615790505b5090506106ab7f0f8155019f558e8b21dd6f77df9f32e5f0d136e54ba0d18503d278955c03d46f60001b613bf9565b6106d77f61af5aad708bca34bb67c2b2711b9cf11e83531a71dc9a76a7dd71d353122a7060001b613bf9565b60005b84811015610bbe5761070e7f1dd12a96d7a09580201d502ad475bfa5b69cd8b0aaf2e8692c75d253603e67c760001b613bf9565b61073a7fecc7e5312a766a168df07fd83acd2859d8421f80689460ba35951681c027b40960001b613bf9565b3373ffffffffffffffffffffffffffffffffffffffff16600560006001846107629190614225565b815260200190815260200160002060030160009054906101000a900473ffffffffffffffffffffffffffffffffffffffff1673ffffffffffffffffffffffffffffffffffffffff1614801561082457503073ffffffffffffffffffffffffffffffffffffffff16600560006001846107da9190614225565b815260200190815260200160002060040160009054906101000a900473ffffffffffffffffffffffffffffffffffffffff1673ffffffffffffffffffffffffffffffffffffffff16145b15610b7e576108557f73a9f3ebbf9f94cabcb569e41578e2ab8e582f0b5f28bdc6bd01f495341ffaa360001b613bf9565b6108817fc4d739a1c06c3fe1272e37bdbdc2da1106b07730173f311aa8228df80c5bcecb60001b613bf9565b6108ad7f763b10ef5dae0f70e4f27727b121c1f7cb8c97dd8ec8fa7cee837a46cd51d97f60001b613bf9565b60006001826108bc9190614225565b90506108ea7fab8d0bad3f0bef000f371847e9f5728cd0c14ff65f3b4508c7c554051d81ebe360001b613bf9565b6109167f291e81f9aa8ecaea789c62c47ba5b8dd75e2b156539faf24cdcab0b03375062960001b613bf9565b60006005600083815260200190815260200160002090506109597fac976980a733843c1a9442b901d1e42be8957f52c066aa65a6bd51cdfbe16c8860001b613bf9565b6109857f514cd41c844091162a04c0f46f8598a610b3905aa345768d28e7e04217c3663c60001b613bf9565b806040518060e0016040529081600082015481526020016001820160009054906101000a900473ffffffffffffffffffffffffffffffffffffffff1673ffffffffffffffffffffffffffffffffffffffff1673ffffffffffffffffffffffffffffffffffffffff168152602001600282015481526020016003820160009054906101000a900473ffffffffffffffffffffffffffffffffffffffff1673ffffffffffffffffffffffffffffffffffffffff1673ffffffffffffffffffffffffffffffffffffffff1681526020016004820160009054906101000a900473ffffffffffffffffffffffffffffffffffffffff1673ffffffffffffffffffffffffffffffffffffffff1673ffffffffffffffffffffffffffffffffffffffff168152602001600582015481526020016006820160009054906101000a900460ff161515151581525050848681518110610b05577f4e487b7100000000000000000000000000000000000000000000000000000000600052603260045260246000fd5b6020026020010181905250610b3c7f102855412c79fa4894b12cdc76ee6efca51b0c032ed257dadf0eae08d724c4a260001b613bf9565b610b687f517b73e4bf7b9dfef1f227d1f14860d016cb125a2686f810e391f58f237337c160001b613bf9565b600185610b759190614225565b94505050610bab565b610baa7fe92762f3ceda011debc66422328e1e73e5bcca60b5a33d059cd3f5dfa511ab2260001b613bf9565b5b8080610bb690614309565b9150506106da565b50610beb7f38db6728fff790c4363e495d15a6bf5f8e3bdb1b04ebc17ab63fc6b6514ccfd560001b613bf9565b610c177f9fff14dc34b2cb05497695001acffc204bd391f8700780fa8254a46dee4388b860001b613bf9565b8094505050505090565b6060610c4f7fcc38755c08e4344f964abd08259896be1d06bbea04c26ed3e822ddd9d8adbc5660001b613bf9565b610c7b7fa4f56b665de69b0cb7b040b2ecc3d53d74c5aabc6eec2dd09e10f75ed5c7253260001b613bf9565b610ca77f37d5ca91867ecdf18e310ca8748baa11d39816823b2d84fd9a6a514a8b33619560001b613bf9565b6000610cb36001613bfc565b9050610ce17fb67a710423c5e9675c14ea122d2293a1e796807a5d5bb5567388b94b699de0ff60001b613bf9565b610d0d7fa11fd6a3639e2fcd0ff0365409e3e479bbe5ec2fd3f81250aea97c0eed8da9ec60001b613bf9565b6000610d196002613bfc565b610d236001613bfc565b610d2d919061427b565b9050610d5b7fc81e3402cddd7d3a4ae90493e126de2c5350bdd0577930b14698f036ca56ee2b60001b613bf9565b610d877f095f0241c8e991e98df9db922fda95f26a1cde2a6b8da81b2bfc7c4e278a972a60001b613bf9565b6000610db57f4956c3089217c105c1b4fb6220fb648fd5340d37f910d151ed23b54cbb7d463860001b613bf9565b610de17fcd328c3d574901e7cc7f0b8837f7acd52d8f1e15a03097b27bcc01fe5b533bd660001b613bf9565b60008267ffffffffffffffff811115610e23577f4e487b7100000000000000000000000000000000000000000000000000000000600052604160045260246000fd5b604051908082528060200260200182016040528015610e5c57816020015b610e49613c20565b815260200190600190039081610e415790505b509050610e8b7fb481a2ae60d0124638032c24702e310d00b551d8bbf844f2454f67922ad3f2a660001b613bf9565b610eb77f0a56169f17e693b3f465652e0a594ed63cc2a1c680f6e0637de0e10a7ac9719060001b613bf9565b60005b8481101561132557610eee7fd908fffde2ba350311f5046702a8c5d554c1660d54158caf8f087fd08ea0612260001b613bf9565b610f1a7fcebfcd7f4c2156642392711e6eddb12035dd354b4ae65df2f85424e47dff26e360001b613bf9565b3073ffffffffffffffffffffffffffffffffffffffff1660056000600184610f429190614225565b815260200190815260200160002060040160009054906101000a900473ffffffffffffffffffffffffffffffffffffffff1673ffffffffffffffffffffffffffffffffffffffff1614156112e557610fbc7fcf5b9a711a54d482138c97a9926a9ec2f8b1631c6a541e561f1e2cdf9e9f367860001b613bf9565b610fe87fc3020d703578281b56541918fb278242356fc3e48f2ad7f6b6d0de56dc19c9ab60001b613bf9565b6110147f5637222748321ae30f79fca0bb7cc467741f35a4c02e089eaf83c452ceb469d260001b613bf9565b60006001826110239190614225565b90506110517f6a1a6735adb20e7352b16acc1b1bdb65feaeb86a32d62f2cc532b904310792ac60001b613bf9565b61107d7feb03e147bf0bcebbfffec69de5afb6bc728a161ba330496d573bdcfa6f7e598e60001b613bf9565b60006005600083815260200190815260200160002090506110c07fb6b360219266e43b9ca5728983acafb6b11c917f53b53a4b97e902214f76b70b60001b613bf9565b6110ec7f0e5b766a26845532fc35e3f3a3c31f85d825b0e73f879bd8b09312058f6cf11b60001b613bf9565b806040518060e0016040529081600082015481526020016001820160009054906101000a900473ffffffffffffffffffffffffffffffffffffffff1673ffffffffffffffffffffffffffffffffffffffff1673ffffffffffffffffffffffffffffffffffffffff168152602001600282015481526020016003820160009054906101000a900473ffffffffffffffffffffffffffffffffffffffff1673ffffffffffffffffffffffffffffffffffffffff1673ffffffffffffffffffffffffffffffffffffffff1681526020016004820160009054906101000a900473ffffffffffffffffffffffffffffffffffffffff1673ffffffffffffffffffffffffffffffffffffffff1673ffffffffffffffffffffffffffffffffffffffff168152602001600582015481526020016006820160009054906101000a900460ff16151515158152505084868151811061126c577f4e487b7100000000000000000000000000000000000000000000000000000000600052603260045260246000fd5b60200260200101819052506112a37f02c0bf7a4ef2ab309a136f5bef01874c3a43ae9d6583d8cb42cc0ba3994ec6c360001b613bf9565b6112cf7f153644a975267a3837b2c0dfa7ec34ad6401b47c5d8d5d5f4f3e4c1f776a722860001b613bf9565b6001856112dc9190614225565b94505050611312565b6113117f64abda79eddb48337e53f61361cc901d15b52daaa9498835cea5117812d2dd0c60001b613bf9565b5b808061131d90614309565b915050610eba565b506113527f502ae59b1ab45aa734176f62a28404434bd48dcdf75278f1e151d0c4b4ee612160001b613bf9565b61137e7f656348ccdb4adf1199c354896e231980ad94f840404028b272548ab35b16b4b660001b613bf9565b8094505050505090565b60006113b67fac33be960ac3163a13d7d33fc6cbd4166fc9de202cab3ea79cae59305b32d36260001b613bf9565b6113e27f8d3643277155c383a1000f38914d7af9696a9075d554c702f8740c7ed5645e5260001b613bf9565b61140e7fc67afa3402dd638bebaa11d3b81a34d45cca58799174cf6c186f8a9d0b220cc160001b613bf9565b600454905090565b60606114447f8c5c174dd3c8797cd1d9b166751137d30a9adf850328b19b981f31f34a64fb0f60001b613bf9565b6114707f7993013e96d13fa94a0c536ee307bb5bea7e876df84e053eedebb4a4c2196a6860001b613bf9565b61149c7f4d3d4350d8f51c855f83fc1ca9cf82e56b37133595f8c3fe0518d8202fa7acb660001b613bf9565b60006114a86001613bfc565b90506114d67f7cb7d1488017e18cfd6faa24c7e97661d52af4c843ac7d4f44197f1da10b848a60001b613bf9565b6115027f8d1f41ef2d13c9b994f8a9908ce4ad7048bab9f06b64a36b6443ab0c55a03f8a60001b613bf9565b60006115307fd9751dcfb2e2540a2e481b854d8f27c319a08cb8ceb99ff148ed3a20f10ba7ea60001b613bf9565b61155c7f04c56cd4fa31691e956f96de46a6924bcfdd658e10e63c736b0c29365b44d57560001b613bf9565b600061158a7f5fbf1be122095a75f0cc7a09e0b67790a46df1419ad657d1efded1c27775421760001b613bf9565b6115b67f6b6a1ec67356c835536a90cd26f2e3f9162c29e93df824249ac42d3e53a5951060001b613bf9565b60005b83811015611767576115ed7f4a3f2ee8cae8234cd4ac259364924cb7fd41179e32929c787a229965c7f4c38e60001b613bf9565b6116197fc26db890f2626fdab859672fd181768ebba0c66fbba03eb647a0b7862f49916960001b613bf9565b3373ffffffffffffffffffffffffffffffffffffffff16600560006001846116419190614225565b815260200190815260200160002060040160009054906101000a900473ffffffffffffffffffffffffffffffffffffffff1673ffffffffffffffffffffffffffffffffffffffff161415611727576116bb7f8d97517d4e73236f4e4e9fb78da34ead8ae654dc1c63d78d81282a631c84baa160001b613bf9565b6116e77fd5b6fb9a8287e37e36861d68c73dcbb5ae53801af46da388c93fdbf7a6399fd060001b613bf9565b6117137fa3bdc30e83ee749c45eb75c2392c4a014405d02ef52489b38fbf133edb0207a060001b613bf9565b6001836117209190614225565b9250611754565b6117537fa42af8f705cfb4e12b6b8665ca6b5a806176654c11b6e6574b118103ec47c1fd60001b613bf9565b5b808061175f90614309565b9150506115b9565b506117947f7bae51ed1ae73d17d8a9163f2e2e85aaf2fcdba4ba99c9c92e9e44c6ca41aece60001b613bf9565b6117c07fbb3c4943552b057d9875f5d0cfd9a1b799132186e4fcf1c4b9843d9a2b21240760001b613bf9565b60008267ffffffffffffffff811115611802577f4e487b7100000000000000000000000000000000000000000000000000000000600052604160045260246000fd5b60405190808252806020026020018201604052801561183b57816020015b611828613c20565b8152602001906001900390816118205790505b50905061186a7fafcaa34a412c38c806a5c7852b016cf162437ba1eb4715f19f017552a8a6b4ff60001b613bf9565b6118967fb443b6b296c9f151fe0f076ac75bf230b50ed6fc586931574d356a983651834c60001b613bf9565b60005b84811015611d04576118cd7f5458ace5e31e62e5d4c02332125f4c509501a5c26160bd5e8be01a1cfbc5f1ad60001b613bf9565b6118f97f256f3a2e04a77851c8defe7db6f057a3301faf07b025b310d38a1cb25125684360001b613bf9565b3373ffffffffffffffffffffffffffffffffffffffff16600560006001846119219190614225565b815260200190815260200160002060040160009054906101000a900473ffffffffffffffffffffffffffffffffffffffff1673ffffffffffffffffffffffffffffffffffffffff161415611cc45761199b7f3431cee59c94881202dfc7054cda47fc66c2d2d8fdea247fb189a5b7a9612cf460001b613bf9565b6119c77ffcd0fcd4a4b26538fcf72ef91a37b5682b6499f1dae0fca0c872aef3d79ec45d60001b613bf9565b6119f37f30ed99e9436342b94f8d049f8d791ee655f7b30406765d13597c3475fb622c0a60001b613bf9565b6000600182611a029190614225565b9050611a307fd2d9faef4a3229396aea10e4c5165beab28d96fc5824212bb18aa982833dd40e60001b613bf9565b611a5c7f9907d00aa9f217ba4ba41974966f24ccee248cc1a7d06f0b8973bd208f6247a960001b613bf9565b6000600560008381526020019081526020016000209050611a9f7fb493dcbfb516f257f03b6895e8d59cbe7534c632b9dadd77083ba83bc9a3c46f60001b613bf9565b611acb7fcd6bfed46066c6d0fce9145b3c94fb443ca3125179fc0d389ebaccd67581116c60001b613bf9565b806040518060e0016040529081600082015481526020016001820160009054906101000a900473ffffffffffffffffffffffffffffffffffffffff1673ffffffffffffffffffffffffffffffffffffffff1673ffffffffffffffffffffffffffffffffffffffff168152602001600282015481526020016003820160009054906101000a900473ffffffffffffffffffffffffffffffffffffffff1673ffffffffffffffffffffffffffffffffffffffff1673ffffffffffffffffffffffffffffffffffffffff1681526020016004820160009054906101000a900473ffffffffffffffffffffffffffffffffffffffff1673ffffffffffffffffffffffffffffffffffffffff1673ffffffffffffffffffffffffffffffffffffffff168152602001600582015481526020016006820160009054906101000a900460ff161515151581525050848681518110611c4b577f4e487b7100000000000000000000000000000000000000000000000000000000600052603260045260246000fd5b6020026020010181905250611c827f172e20296fb8293bf027765d2218f2b268dcba09097d1c09daa7d180b9d21f3260001b613bf9565b611cae7f0a7ab6430aec4c6d1d1fa6ede3d373ac585ded9c57d0f9fe285fc2882e52a3cf60001b613bf9565b600185611cbb9190614225565b94505050611cf1565b611cf07febea51f31b7c6ee47cb5ecbe35b0bbbc3b00859d3c2dfd014ae86278ce84c9fe60001b613bf9565b5b8080611cfc90614309565b915050611899565b50611d317f8932eeb7af56091b04e3fa934bc459e4d9fb3e6bca262b1348afde8968968fc260001b613bf9565b611d5d7fc66eaeefd272c8f7227138c3bea425b9dfb6affeee2d815081e153bdedf4cf8660001b613bf9565b8094505050505090565b6060611d957f789b320e673acb85d3f895873443d5a4893325c1d7295b2bc835b229bc7613de60001b613bf9565b611dc17fc00e63ac802bca8d5257082d828821df63a2065164890abf4e53b85e684c2b2260001b613bf9565b611ded7fee2b8719802322fd2a425b86e75aeacf64b400a7f555184e3f1d556f080ad89e60001b613bf9565b6000611df96001613bfc565b9050611e277f68e07f8fb77edaac40cc9d6b65c689d62ff790b89d1a320b08f94a3d050e9b1d60001b613bf9565b611e537f8bf73dbe237f940f47ccdb5cccb023760aefc1ad9494ad64a84cc32e7673d97c60001b613bf9565b6000611e817fb4cdfa4c2fe369338ed6e630168eceb6e95a73ec22a494b716e9e7c3fd82e5f060001b613bf9565b611ead7f87caf63923d15f7efe7278dd17de5fb84f3792b289f251362b200a60fec4d9bf60001b613bf9565b6000611edb7f10a942ae3f3d58eb97e67cfcc0e558ab1f9d55a1b1809a4acd82a2484985d37360001b613bf9565b611f077f9e1f1b6cf53160915902f0df4a67b471f73711f5c8ef40e2d3fdb1e4ca91730760001b613bf9565b60005b8381101561213157611f3e7f8461b42c539144dbd0bc20c5bc0ad87dcf26e71fe11de22f339ef9bb6a341a6a60001b613bf9565b611f6a7ff863523760c56e2611da4c4c631e20ee830b1a1e3fe61bca083c8578e5fb0d1160001b613bf9565b8573ffffffffffffffffffffffffffffffffffffffff1660056000600184611f929190614225565b815260200190815260200160002060030160009054906101000a900473ffffffffffffffffffffffffffffffffffffffff1673ffffffffffffffffffffffffffffffffffffffff1614801561205457503073ffffffffffffffffffffffffffffffffffffffff166005600060018461200a9190614225565b815260200190815260200160002060040160009054906101000a900473ffffffffffffffffffffffffffffffffffffffff1673ffffffffffffffffffffffffffffffffffffffff16145b156120f1576120857fefe1dfea4bed6442c7b552c5e26df39d435ecc1daeff2bf5f4589cce3d9359cf60001b613bf9565b6120b17fbacc45ed64ba52aec449853fd3068d05bb73658ddbd9b78af385bf5abe9ca3eb60001b613bf9565b6120dd7f94994a8e7cf0659dbbb6d76747dc694d7a27b73d9d4da881eae5bfe8dd5ee68f60001b613bf9565b6001836120ea9190614225565b925061211e565b61211d7fc51a22d3a39e805e050b7bd73e6bd69ee05d7c520af107aabf4ff44ee7da17d860001b613bf9565b5b808061212990614309565b915050611f0a565b5061215e7fc80fd22db16619c9e54feb3b15f44484065257f1ef89ae806d6aeb5a8dcf10c460001b613bf9565b61218a7f38dddbe5e0549e4842456e4c124c560494c4317c4b903ad2b5c7ff0b9f6ec86e60001b613bf9565b60008267ffffffffffffffff8111156121cc577f4e487b7100000000000000000000000000000000000000000000000000000000600052604160045260246000fd5b60405190808252806020026020018201604052801561220557816020015b6121f2613c20565b8152602001906001900390816121ea5790505b5090506122347f6f9141095047222cc6d3d549cc63b7114ff8cc68b01f58cf12b5c7716acfb9d760001b613bf9565b6122607f74368a327a8720d69fc3d6dcf930a2746e4a9cb5fb66e5e321594464830d2dad60001b613bf9565b60005b84811015612747576122977f3854dda828ed3aff3a2c3474c5019ac034e3ddeefbac2941a9c3293af7b165bc60001b613bf9565b6122c37f761a3d3f29a936b91de894ee6c2b3d007fcaf1e83a49cc62b8483d28cc4d141960001b613bf9565b8673ffffffffffffffffffffffffffffffffffffffff16600560006001846122eb9190614225565b815260200190815260200160002060030160009054906101000a900473ffffffffffffffffffffffffffffffffffffffff1673ffffffffffffffffffffffffffffffffffffffff161480156123ad57503073ffffffffffffffffffffffffffffffffffffffff16600560006001846123639190614225565b815260200190815260200160002060040160009054906101000a900473ffffffffffffffffffffffffffffffffffffffff1673ffffffffffffffffffffffffffffffffffffffff16145b15612707576123de7f6bded9aef7e65ace2cc523eec069f5574bc7c5e0cd5445613022139991842e8760001b613bf9565b61240a7f19bbbccfd0ef2106e10640b26787e21328a55858aced4dee2ea27204d0d4f5a460001b613bf9565b6124367f9406eb39e9fcad90cebcf51f512731e5b00af5032dc4ba62b0987fb7917ec11660001b613bf9565b60006001826124459190614225565b90506124737f48beddee1f009cd6038734364bd25a537387b9428d45217da5f17bb1160b58fe60001b613bf9565b61249f7f1f0674009b10b12754e19e4eb3ead27bd093f1dfe88ed431de01f384c74bbb7b60001b613bf9565b60006005600083815260200190815260200160002090506124e27ffdb68e1631e378869953d8a2d38345030687648442ff56fadadce81615d259c360001b613bf9565b61250e7f58f1bac0d30453722c8c9fa24263264ddff8149fa399cfc1e2586a3e4cab921260001b613bf9565b806040518060e0016040529081600082015481526020016001820160009054906101000a900473ffffffffffffffffffffffffffffffffffffffff1673ffffffffffffffffffffffffffffffffffffffff1673ffffffffffffffffffffffffffffffffffffffff168152602001600282015481526020016003820160009054906101000a900473ffffffffffffffffffffffffffffffffffffffff1673ffffffffffffffffffffffffffffffffffffffff1673ffffffffffffffffffffffffffffffffffffffff1681526020016004820160009054906101000a900473ffffffffffffffffffffffffffffffffffffffff1673ffffffffffffffffffffffffffffffffffffffff1673ffffffffffffffffffffffffffffffffffffffff168152602001600582015481526020016006820160009054906101000a900460ff16151515158152505084868151811061268e577f4e487b7100000000000000000000000000000000000000000000000000000000600052603260045260246000fd5b60200260200101819052506126c57f0e3d80ec85e8a84769fb908d1249362d3ec4370f924adc5601933b7ea21edbb860001b613bf9565b6126f17f75bdfa8655cf0d8460efbd7b30b6ab146e698a5cc83e6503008f98d1a8646d3c60001b613bf9565b6001856126fe9190614225565b94505050612734565b6127337f4b08bdb57c06a1c4a1986f9dcaf699e1ff1506c575f62ecbebc1b73696a8b3ed60001b613bf9565b5b808061273f90614309565b915050612263565b506127747f7e07cffa0e6fe2eaeaa89ec69ec67cfa5b0944cd178046c3ad143364893846ee60001b613bf9565b6127a07f1919ae28976108b5ee654ab8fce335afbaed695921904e2990dd9f51a20c9d4b60001b613bf9565b80945050505050919050565b6127b4613c20565b6127e07f3f4fd9aeeac6ba89b53ff93f53252c93ccb2f2c6f4279cb26f88a86144a1170060001b613bf9565b61280c7f5e612e51a7a986a2ead26d147434154334099e10eb1a8f28f9e63f1c61658b7160001b613bf9565b6128387f7fb963b65b875bb8c8d0a8487004fd7aa5e27ff3c56ea40f0abc243fd263fe5660001b613bf9565b60006128446001613bfc565b90506128727f5fa4bdffea8425e1bd9ac20b388702223f3411804d0108a951068fc6e9dba61e60001b613bf9565b61289e7fb55c9f973028979bebc19576312f12e01c7d8dad6fa033df7b81064d38315d3960001b613bf9565b60005b81811015612bd5576128d57f99a2c1e46fdc4e29699003b42ecbadaaab75a6577fb095018995afb6a621019160001b613bf9565b6129017f28671d1d69321ef4c93531933fc406d8c53703cb5b2254288365f1ef8372f79060001b613bf9565b8473ffffffffffffffffffffffffffffffffffffffff16600560006001846129299190614225565b815260200190815260200160002060010160009054906101000a900473ffffffffffffffffffffffffffffffffffffffff1673ffffffffffffffffffffffffffffffffffffffff1614801561299f5750836005600060018461298b9190614225565b815260200190815260200160002060020154145b15612b96576129d07fb709a0d8a814d345e27f6c43fb10a3352cbd288d0e5bc6b5430271ec1553b2ba60001b613bf9565b6129fc7f14fea6503042736e4494af25f7a4837e95efb066825b6f0ce6cd8b95991fa2e160001b613bf9565b612a287f76cc4a05399b5cfcd738abfd06e6288522cefed1355750a5ea7a3dc5db30e04160001b613bf9565b60056000600183612a399190614225565b81526020019081526020016000206040518060e0016040529081600082015481526020016001820160009054906101000a900473ffffffffffffffffffffffffffffffffffffffff1673ffffffffffffffffffffffffffffffffffffffff1673ffffffffffffffffffffffffffffffffffffffff168152602001600282015481526020016003820160009054906101000a900473ffffffffffffffffffffffffffffffffffffffff1673ffffffffffffffffffffffffffffffffffffffff1673ffffffffffffffffffffffffffffffffffffffff1681526020016004820160009054906101000a900473ffffffffffffffffffffffffffffffffffffffff1673ffffffffffffffffffffffffffffffffffffffff1673ffffffffffffffffffffffffffffffffffffffff168152602001600582015481526020016006820160009054906101000a900460ff16151515158152505092505050612c69565b612bc27f5e97e1e297c327ec0b6802a94e833a7c1111b612e62644641401c1107663f86f60001b613bf9565b8080612bcd90614309565b9150506128a1565b50612c027f9d44abbe9c2c27daaf73a8e410b12293228d3779c20220e24a4140a4fda106f360001b613bf9565b612c2e7fab2f9e7736d549a4ddc814794f9f7461d7b6aa8965262318bf52b236d793bb3d60001b613bf9565b6040517f08c379a0000000000000000000000000000000000000000000000000000000008152600401612c6090614105565b60405180910390fd5b92915050565b60026000541415612cb5576040517f08c379a0000000000000000000000000000000000000000000000000000000008152600401612cac90614165565b60405180910390fd5b6002600081905550612ce97f9b8fb95e6caa3fc401ae9799c5a76e291d7b30cb7d917ff4ae38d5d816fedfd060001b613bf9565b612d157fa88a77b4cce0a16b39fcd76e615059ef763c92437d5372fc9675c826917ed7e560001b613bf9565b612d417fbdd43a3ff942963a70ea20d4cd6961289d167a63ec14e7e5ba98b8d9a8f277d660001b613bf9565b612d6d7fef64772a26470a88b05be4919779d37f15d5168c9daba7d203f1946f75a0003360001b613bf9565b60008111612db0576040517f08c379a0000000000000000000000000000000000000000000000000000000008152600401612da790614185565b60405180910390fd5b612ddc7f04d5bd3fe1ee20112c85660b0dc32df47713fdd269781814122d74687209add060001b613bf9565b612e087faac27927b17971a8c640796c758142b1f134881a1a579e6aa0b8baafa385634360001b613bf9565b612e347f4ccf29a5bbf8272a7125c2a29bbc38b554c88fa878a75f32d6bcc6914d0d566560001b613bf9565b612e607fae9747ab0197f18a53d8a3164122553a9fa6c2a822488ee95a5150834f4117fc60001b613bf9565b6004543414612ea4576040517f08c379a0000000000000000000000000000000000000000000000000000000008152600401612e9b90614145565b60405180910390fd5b612ed07f602fea2e25e600376102b2c9651796871d9e34eae43e3724012f9c56c876a96160001b613bf9565b612efc7faef78e33a14025e8be72090eac9aa52542c405ae47a5de75ae081b3f6a14b08e60001b613bf9565b612f287f02ac7fdf785c794c1854d7d75983283ad109dccf0bc5ae5bc2dfa9a462868e5d60001b613bf9565b612f547fc96830134982bce90f7e87904b0e2c2de910b9a855276cb8db3863e7e39afd5760001b613bf9565b8273ffffffffffffffffffffffffffffffffffffffff16636352211e836040518263ffffffff1660e01b8152600401612f8d91906141c0565b60206040518083038186803b158015612fa557600080fd5b505afa158015612fb9573d6000803e3d6000fd5b505050506040513d601f19601f82011682018060405250810190612fdd9190613d09565b73ffffffffffffffffffffffffffffffffffffffff163373ffffffffffffffffffffffffffffffffffffffff161461301457600080fd5b6130407f1376aeab4d0ac550002289a3a03afb3139a1faec36c34b45abe2097e9fe2278060001b613bf9565b61306c7f2785f942334980794a381bbe9f45811be1c622a8304b751f2f2d8712fbec9f0760001b613bf9565b6130987f13631177a490704bdb9c9118b7a065555c2591e1cff205fcee9c348253e264ea60001b613bf9565b6130a26001613c0a565b6130ce7ffab5a0f5b148022aaf0f9d6ba1cc58d5f780adeb301372c105685d9e55949dd060001b613bf9565b6130fa7f0d5508147bdf106ba4f8c434a23009f426a18d1ebcb6d70098fe26d127fcf41960001b613bf9565b60006131066001613bfc565b90506131347f5fbecbf26196baf8c394e67e63f39a8b4495e17a3853c6fa6757d678b796929960001b613bf9565b6131607f53bdb8bf54a67145ea7eb18a67fc5df0cdf426deb0106e43531174f77d86058f60001b613bf9565b6040518060e001604052808281526020018573ffffffffffffffffffffffffffffffffffffffff1681526020018481526020013373ffffffffffffffffffffffffffffffffffffffff1681526020013073ffffffffffffffffffffffffffffffffffffffff16815260200183815260200160001515815250600560008381526020019081526020016000206000820151816000015560208201518160010160006101000a81548173ffffffffffffffffffffffffffffffffffffffff021916908373ffffffffffffffffffffffffffffffffffffffff1602179055506040820151816002015560608201518160030160006101000a81548173ffffffffffffffffffffffffffffffffffffffff021916908373ffffffffffffffffffffffffffffffffffffffff16021790555060808201518160040160006101000a81548173ffffffffffffffffffffffffffffffffffffffff021916908373ffffffffffffffffffffffffffffffffffffffff16021790555060a0820151816005015560c08201518160060160006101000a81548160ff02191690831515021790555090505061332d7fcb72ccedafdfc867fb79f3835e1a0cae960d66484216a7e5865065ce9143736d60001b613bf9565b6133597f428c6f3aef4d2da530a26615bc4c58c5b1eff389aad607a6d6c2a364b827bd5a60001b613bf9565b8373ffffffffffffffffffffffffffffffffffffffff166323b872dd3330866040518463ffffffff1660e01b815260040161339693929190614067565b600060405180830381600087803b1580156133b057600080fd5b505af11580156133c4573d6000803e3d6000fd5b505050506133f47ff61451e030d6375d9030c5cc37ecbb3a87a5e70e34f77302d7d3a6e5accd7f8760001b613bf9565b6134207fc788bc06bd6afc1af2dc1933df3bca866d4f1acb8853c83f954184a30492869460001b613bf9565b828473ffffffffffffffffffffffffffffffffffffffff16827f045dfa01dcba2b36aba1d3dc4a874f4b0c5d2fbeb8d2c4b34a7d88c8d8f929d1333087600060405161346f949392919061409e565b60405180910390a4506001600081905550505050565b600260005414156134cb576040517f08c379a00000000000000000000000000000000000000000000000000000000081526004016134c290614165565b60405180910390fd5b60026000819055506134ff7fdbdaf2b98c3d62500d5b25064ff8bec2651c850031c5a2e8d43ddb6c640de54960001b613bf9565b61352b7fe5648ee106049d0e648ad4ed8cec32d7e8ed287ad1b886dc90356569c75c73e160001b613bf9565b6135577fac94a9d06bf6361d6cbae26b1bc7b290f1e2b2dc0365f60a6ec382b732db658b60001b613bf9565b60006005600083815260200190815260200160002060050154905061359e7fe4f6c5de5e594ce1c7e41cbd56ffe37a660d66b0502994896a35388613893b6460001b613bf9565b6135ca7ffda7647467508c1565e39c06cb249d9df191830b75c56ee7c5338f8a6528ebc060001b613bf9565b6000600560008481526020019081526020016000206002015490506136117f0fed965587c55be7aa00c23d8e638d620f3b7df83c447cb97787a91e265f02b060001b613bf9565b61363d7fd949fb36f5e460e8ecf349ee3f396af74aa97bdfc2361ca1ed5d8cb6be88784b60001b613bf9565b6136697f692923fc4a9db41706e9d3566e6b61e0263e9c72a95d3311f7240fa62bc45f5e60001b613bf9565b8134146136ab576040517f08c379a00000000000000000000000000000000000000000000000000000000081526004016136a290614125565b60405180910390fd5b6136d77fbf23e749d72d0b50771a45408ce87082254f06215dcf70763307d4c4b6587fb060001b613bf9565b6137037fc53a712ca0b10c773112748fd8cc556ac25fc39dfbc57b30f4d251e7e57a36e560001b613bf9565b61372f7f89d8008cfface8c388bbb702895d0130c01ccb6d9e8be81f758fcba4ca7353f060001b613bf9565b61375b7f3809925d9d1081ad617f278affcfee739681425bdaedc8e022f7b46b419728d960001b613bf9565b6005600084815260200190815260200160002060030160009054906101000a900473ffffffffffffffffffffffffffffffffffffffff1673ffffffffffffffffffffffffffffffffffffffff163373ffffffffffffffffffffffffffffffffffffffff1614156137ca57600080fd5b6137f67fdddf5eab2f4447c583a713b70a8c018923e9da6e1507e93fce041e0d89035d9f60001b613bf9565b6138227feaba83da1f3c25c13fc6a5f0cc14793dfb129edef11d88ad25f00f1392b901b260001b613bf9565b61384e7fa5ff1de729495772e515ea25a3c4e1652ba3e753d92c09a756d55de39d309df660001b613bf9565b6005600084815260200190815260200160002060030160009054906101000a900473ffffffffffffffffffffffffffffffffffffffff1673ffffffffffffffffffffffffffffffffffffffff166108fc349081150290604051600060405180830381858888f193505050501580156138ca573d6000803e3d6000fd5b506138f77f6f9cfa9de92ef677dbe3b774f35bedfc30779d0d7b48d521063ac71f364c19af60001b613bf9565b6139237ff1f806aac34bede0f405f885a4f655a2e7bb53dcf310559fab05ce9626df2fe160001b613bf9565b8373ffffffffffffffffffffffffffffffffffffffff166323b872dd3033846040518463ffffffff1660e01b815260040161396093929190614067565b600060405180830381600087803b15801561397a57600080fd5b505af115801561398e573d6000803e3d6000fd5b505050506139be7ff3547f0c1dc952f6bd008cda36181ce8d4114abf54b0f12eee27032c43ab8e4460001b613bf9565b6139ea7fc8f76145494f1ff9e29ba4f45073cc8057ed18677e7595bb80f8d0dff9aa0a7660001b613bf9565b336005600085815260200190815260200160002060040160006101000a81548173ffffffffffffffffffffffffffffffffffffffff021916908373ffffffffffffffffffffffffffffffffffffffff160217905550613a6b7f7c94ff931c1514d13e36d99b2a7b0b7b4ad035f0ea4ada02f1d631c3e6dd7fe060001b613bf9565b613a977f8d77c18102ee401caaa7be5cdf4a8db370a9f46ad259c32be6a466f397c8068b60001b613bf9565b60016005600085815260200190815260200160002060060160006101000a81548160ff021916908315150217905550613af27fcbec810d0ad3a6914aee30dd594dc60795e5ab362b87517dec918c0dd4227e1d60001b613bf9565b613b1e7f4aee1716d00e290acf9287fc1030dc567f7a2ec62431fefc3a2b4de89b17317f60001b613bf9565b613b286002613c0a565b613b547fc5e02d8215f7d12e3c8ae2172a7b9a048488e5d790c8003df16e7cbe04da1df760001b613bf9565b613b807f6f190436a8ed6ca69381e36e7f129bbe1aa74139e0ca398e298a313e0a3ac9a960001b613bf9565b600360009054906101000a900473ffffffffffffffffffffffffffffffffffffffff1673ffffffffffffffffffffffffffffffffffffffff166108fc6004549081150290604051600060405180830381858888f19350505050158015613bea573d6000803e3d6000fd5b50505060016000819055505050565b50565b600081600001549050919050565b6001816000016000828254019250508190555050565b6040518060e0016040528060008152602001600073ffffffffffffffffffffffffffffffffffffffff16815260200160008152602001600073ffffffffffffffffffffffffffffffffffffffff168152602001600073ffffffffffffffffffffffffffffffffffffffff168152602001600081526020016000151581525090565b600081359050613cb0816144c0565b92915050565b600081519050613cc5816144c0565b92915050565b600081359050613cda816144d7565b92915050565b600060208284031215613cf257600080fd5b6000613d0084828501613ca1565b91505092915050565b600060208284031215613d1b57600080fd5b6000613d2984828501613cb6565b91505092915050565b60008060408385031215613d4557600080fd5b6000613d5385828601613ca1565b9250506020613d6485828601613ccb565b9150509250929050565b600080600060608486031215613d8357600080fd5b6000613d9186828701613ca1565b9350506020613da286828701613ccb565b9250506040613db386828701613ccb565b9150509250925092565b6000613dc98383613f2d565b60e08301905092915050565b613dde816142c1565b82525050565b613ded816142af565b82525050565b613dfc816142af565b82525050565b6000613e0d826141eb565b613e178185614203565b9350613e22836141db565b8060005b83811015613e53578151613e3a8882613dbd565b9750613e45836141f6565b925050600181019050613e26565b5085935050505092915050565b613e69816142d3565b82525050565b613e78816142d3565b82525050565b6000613e8b600983614214565b9150613e9682614381565b602082019050919050565b6000613eae604083614214565b9150613eb9826143aa565b604082019050919050565b6000613ed1604483614214565b9150613edc826143f9565b606082019050919050565b6000613ef4601f83614214565b9150613eff8261446e565b602082019050919050565b6000613f17601c83614214565b9150613f2282614497565b602082019050919050565b60e082016000820151613f436000850182614049565b506020820151613f566020850182613de4565b506040820151613f696040850182614049565b506060820151613f7c6060850182613dd5565b506080820151613f8f6080850182613dd5565b5060a0820151613fa260a0850182614049565b5060c0820151613fb560c0850182613e60565b50505050565b60e082016000820151613fd16000850182614049565b506020820151613fe46020850182613de4565b506040820151613ff76040850182614049565b50606082015161400a6060850182613dd5565b50608082015161401d6080850182613dd5565b5060a082015161403060a0850182614049565b5060c082015161404360c0850182613e60565b50505050565b614052816142ff565b82525050565b614061816142ff565b82525050565b600060608201905061407c6000830186613df3565b6140896020830185613df3565b6140966040830184614058565b949350505050565b60006080820190506140b36000830187613df3565b6140c06020830186613df3565b6140cd6040830185614058565b6140da6060830184613e6f565b95945050505050565b600060208201905081810360008301526140fd8184613e02565b905092915050565b6000602082019050818103600083015261411e81613e7e565b9050919050565b6000602082019050818103600083015261413e81613ea1565b9050919050565b6000602082019050818103600083015261415e81613ec4565b9050919050565b6000602082019050818103600083015261417e81613ee7565b9050919050565b6000602082019050818103600083015261419e81613f0a565b9050919050565b600060e0820190506141ba6000830184613fbb565b92915050565b60006020820190506141d56000830184614058565b92915050565b6000819050602082019050919050565b600081519050919050565b6000602082019050919050565b600082825260208201905092915050565b600082825260208201905092915050565b6000614230826142ff565b915061423b836142ff565b9250827fffffffffffffffffffffffffffffffffffffffffffffffffffffffffffffffff038211156142705761426f614352565b5b828201905092915050565b6000614286826142ff565b9150614291836142ff565b9250828210156142a4576142a3614352565b5b828203905092915050565b60006142ba826142df565b9050919050565b60006142cc826142df565b9050919050565b60008115159050919050565b600073ffffffffffffffffffffffffffffffffffffffff82169050919050565b6000819050919050565b6000614314826142ff565b91507fffffffffffffffffffffffffffffffffffffffffffffffffffffffffffffffff82141561434757614346614352565b5b600182019050919050565b7f4e487b7100000000000000000000000000000000000000000000000000000000600052601160045260246000fd5b7f4e6f7420666f756e640000000000000000000000000000000000000000000000600082015250565b7f506c65617365207375626d6974207468652061736b696e67207072696365206960008201527f6e206f7264657220746f20636f6d706c65746520746865207075726368617365602082015250565b7f546865206c697374696e67207072696365206d7573742062652074686520736160008201527f6d6520617320746865206d61726b657420706c616365206c697374696e67207060208201527f7269636500000000000000000000000000000000000000000000000000000000604082015250565b7f5265656e7472616e637947756172643a207265656e7472616e742063616c6c00600082015250565b7f5072696365206d757374206265206174206c6561737420312077656900000000600082015250565b6144c9816142af565b81146144d457600080fd5b50565b6144e0816142ff565b81146144eb57600080fd5b5056fea2646970667358221220eea162f999a8e7d60dd804fc4d2eab0fb71b6468b5cbd6973a795f702fbcca7b64736f6c63430008040033",
  "linkReferences": {},
  "deployedLinkReferences": {}
}