{
  "_format": "hh-sol-artifact-1",
  "contractName": "NFTMarket",
  "sourceName": "contracts/NFTMarket.sol",
  "abi": [
    {
      "inputs": [],
      "stateMutability": "nonpayable",
      "type": "constructor"
    },
    {
      "anonymous": false,
      "inputs": [
        {
          "indexed": true,
          "internalType": "uint256",
          "name": "itemId",
          "type": "uint256"
        },
        {
          "indexed": true,
          "internalType": "address",
          "name": "nftContract",
          "type": "address"
        },
        {
          "indexed": true,
          "internalType": "uint256",
          "name": "tokenId",
          "type": "uint256"
        },
        {
          "indexed": false,
          "internalType": "address",
          "name": "seller",
          "type": "address"
        },
        {
          "indexed": false,
          "internalType": "address",
          "name": "owner",
          "type": "address"
        },
        {
          "indexed": false,
          "internalType": "uint256",
          "name": "price",
          "type": "uint256"
        },
        {
          "indexed": false,
          "internalType": "bool",
          "name": "sold",
          "type": "bool"
        }
      ],
      "name": "MarketItemCreated",
      "type": "event"
    },
    {
      "inputs": [
        {
          "internalType": "address",
          "name": "nftContract",
          "type": "address"
        },
        {
          "internalType": "uint256",
          "name": "tokenId",
          "type": "uint256"
        },
        {
          "internalType": "uint256",
          "name": "price",
          "type": "uint256"
        }
      ],
      "name": "createMarketItem",
      "outputs": [],
      "stateMutability": "payable",
      "type": "function"
    },
    {
      "inputs": [
        {
          "internalType": "address",
          "name": "nftContract",
          "type": "address"
        },
        {
          "internalType": "uint256",
          "name": "itemId",
          "type": "uint256"
        }
      ],
      "name": "createMarketSale",
      "outputs": [],
      "stateMutability": "payable",
      "type": "function"
    },
    {
      "inputs": [
        {
          "internalType": "address",
          "name": "contractAddr",
          "type": "address"
        },
        {
          "internalType": "uint256",
          "name": "tokenId",
          "type": "uint256"
        }
      ],
      "name": "fetchItemByContractAddAndTokenID",
      "outputs": [
        {
          "components": [
            {
              "internalType": "uint256",
              "name": "itemId",
              "type": "uint256"
            },
            {
              "internalType": "address",
              "name": "nftContract",
              "type": "address"
            },
            {
              "internalType": "uint256",
              "name": "tokenId",
              "type": "uint256"
            },
            {
              "internalType": "address payable",
              "name": "seller",
              "type": "address"
            },
            {
              "internalType": "address payable",
              "name": "owner",
              "type": "address"
            },
            {
              "internalType": "uint256",
              "name": "price",
              "type": "uint256"
            },
            {
              "internalType": "bool",
              "name": "sold",
              "type": "bool"
            }
          ],
          "internalType": "struct NFTMarket.MarketItem",
          "name": "",
          "type": "tuple"
        }
      ],
      "stateMutability": "view",
      "type": "function"
    },
    {
      "inputs": [],
      "name": "fetchMarketItems",
      "outputs": [
        {
          "components": [
            {
              "internalType": "uint256",
              "name": "itemId",
              "type": "uint256"
            },
            {
              "internalType": "address",
              "name": "nftContract",
              "type": "address"
            },
            {
              "internalType": "uint256",
              "name": "tokenId",
              "type": "uint256"
            },
            {
              "internalType": "address payable",
              "name": "seller",
              "type": "address"
            },
            {
              "internalType": "address payable",
              "name": "owner",
              "type": "address"
            },
            {
              "internalType": "uint256",
              "name": "price",
              "type": "uint256"
            },
            {
              "internalType": "bool",
              "name": "sold",
              "type": "bool"
            }
          ],
          "internalType": "struct NFTMarket.MarketItem[]",
          "name": "",
          "type": "tuple[]"
        }
      ],
      "stateMutability": "view",
      "type": "function"
    },
    {
      "inputs": [],
      "name": "fetchMyListedNFTs",
      "outputs": [
        {
          "components": [
            {
              "internalType": "uint256",
              "name": "itemId",
              "type": "uint256"
            },
            {
              "internalType": "address",
              "name": "nftContract",
              "type": "address"
            },
            {
              "internalType": "uint256",
              "name": "tokenId",
              "type": "uint256"
            },
            {
              "internalType": "address payable",
              "name": "seller",
              "type": "address"
            },
            {
              "internalType": "address payable",
              "name": "owner",
              "type": "address"
            },
            {
              "internalType": "uint256",
              "name": "price",
              "type": "uint256"
            },
            {
              "internalType": "bool",
              "name": "sold",
              "type": "bool"
            }
          ],
          "internalType": "struct NFTMarket.MarketItem[]",
          "name": "",
          "type": "tuple[]"
        }
      ],
      "stateMutability": "view",
      "type": "function"
    },
    {
      "inputs": [],
      "name": "fetchMyNFTs",
      "outputs": [
        {
          "components": [
            {
              "internalType": "uint256",
              "name": "itemId",
              "type": "uint256"
            },
            {
              "internalType": "address",
              "name": "nftContract",
              "type": "address"
            },
            {
              "internalType": "uint256",
              "name": "tokenId",
              "type": "uint256"
            },
            {
              "internalType": "address payable",
              "name": "seller",
              "type": "address"
            },
            {
              "internalType": "address payable",
              "name": "owner",
              "type": "address"
            },
            {
              "internalType": "uint256",
              "name": "price",
              "type": "uint256"
            },
            {
              "internalType": "bool",
              "name": "sold",
              "type": "bool"
            }
          ],
          "internalType": "struct NFTMarket.MarketItem[]",
          "name": "",
          "type": "tuple[]"
        }
      ],
      "stateMutability": "view",
      "type": "function"
    },
    {
      "inputs": [
        {
          "internalType": "address",
          "name": "userAddress",
          "type": "address"
        }
      ],
      "name": "fetchUserListedNFTs",
      "outputs": [
        {
          "components": [
            {
              "internalType": "uint256",
              "name": "itemId",
              "type": "uint256"
            },
            {
              "internalType": "address",
              "name": "nftContract",
              "type": "address"
            },
            {
              "internalType": "uint256",
              "name": "tokenId",
              "type": "uint256"
            },
            {
              "internalType": "address payable",
              "name": "seller",
              "type": "address"
            },
            {
              "internalType": "address payable",
              "name": "owner",
              "type": "address"
            },
            {
              "internalType": "uint256",
              "name": "price",
              "type": "uint256"
            },
            {
              "internalType": "bool",
              "name": "sold",
              "type": "bool"
            }
          ],
          "internalType": "struct NFTMarket.MarketItem[]",
          "name": "",
          "type": "tuple[]"
        }
      ],
      "stateMutability": "view",
      "type": "function"
    },
    {
      "inputs": [],
      "name": "getListingPrice",
      "outputs": [
        {
          "internalType": "uint256",
          "name": "",
          "type": "uint256"
        }
      ],
      "stateMutability": "view",
      "type": "function"
    }
  ],
  "bytecode": "0x60806040526658d15e1762800060045534801561001b57600080fd5b50600160008190555033600360006101000a81548173ffffffffffffffffffffffffffffffffffffffff021916908373ffffffffffffffffffffffffffffffffffffffff1602179055506124aa806100746000396000f3fe60806040526004361061007b5760003560e01c80632b600ced1161004e5780632b600ced1461012c5780633afef9b81461016957806358eb2df5146101a6578063c23b139e146101c25761007b565b80630e2cb944146100805780630f08efe0146100ab57806312e85585146100d6578063202e374014610101575b600080fd5b34801561008c57600080fd5b506100956101de565b6040516100a29190612069565b60405180910390f35b3480156100b757600080fd5b506100c061066a565b6040516100cd9190612069565b60405180910390f35b3480156100e257600080fd5b506100eb61097f565b6040516100f89190612146565b60405180910390f35b34801561010d57600080fd5b50610116610989565b6040516101239190612069565b60405180910390f35b34801561013857600080fd5b50610153600480360381019061014e9190611c66565b610d23565b6040516101609190612069565b60405180910390f35b34801561017557600080fd5b50610190600480360381019061018b9190611cb8565b6111b1565b60405161019d919061212b565b60405180910390f35b6101c060048036038101906101bb9190611cf4565b611438565b005b6101dc60048036038101906101d79190611cb8565b61185a565b005b606060006101ec6001611b82565b905060008060005b8381101561030e573373ffffffffffffffffffffffffffffffffffffffff166005600060018461022491906121ab565b815260200190815260200160002060030160009054906101000a900473ffffffffffffffffffffffffffffffffffffffff1673ffffffffffffffffffffffffffffffffffffffff161480156102e657503073ffffffffffffffffffffffffffffffffffffffff166005600060018461029c91906121ab565b815260200190815260200160002060040160009054906101000a900473ffffffffffffffffffffffffffffffffffffffff1673ffffffffffffffffffffffffffffffffffffffff16145b156102fb576001836102f891906121ab565b92505b80806103069061228f565b9150506101f4565b5060008267ffffffffffffffff811115610351577f4e487b7100000000000000000000000000000000000000000000000000000000600052604160045260246000fd5b60405190808252806020026020018201604052801561038a57816020015b610377611ba6565b81526020019060019003908161036f5790505b50905060005b8481101561065f573373ffffffffffffffffffffffffffffffffffffffff16600560006001846103c091906121ab565b815260200190815260200160002060030160009054906101000a900473ffffffffffffffffffffffffffffffffffffffff1673ffffffffffffffffffffffffffffffffffffffff1614801561048257503073ffffffffffffffffffffffffffffffffffffffff166005600060018461043891906121ab565b815260200190815260200160002060040160009054906101000a900473ffffffffffffffffffffffffffffffffffffffff1673ffffffffffffffffffffffffffffffffffffffff16145b1561064c57600060018261049691906121ab565b90506000600560008381526020019081526020016000209050806040518060e0016040529081600082015481526020016001820160009054906101000a900473ffffffffffffffffffffffffffffffffffffffff1673ffffffffffffffffffffffffffffffffffffffff1673ffffffffffffffffffffffffffffffffffffffff168152602001600282015481526020016003820160009054906101000a900473ffffffffffffffffffffffffffffffffffffffff1673ffffffffffffffffffffffffffffffffffffffff1673ffffffffffffffffffffffffffffffffffffffff1681526020016004820160009054906101000a900473ffffffffffffffffffffffffffffffffffffffff1673ffffffffffffffffffffffffffffffffffffffff1673ffffffffffffffffffffffffffffffffffffffff168152602001600582015481526020016006820160009054906101000a900460ff16151515158152505084868151811061062f577f4e487b7100000000000000000000000000000000000000000000000000000000600052603260045260246000fd5b602002602001018190525060018561064791906121ab565b945050505b80806106579061228f565b915050610390565b508094505050505090565b606060006106786001611b82565b905060006106866002611b82565b6106906001611b82565b61069a9190612201565b90506000808267ffffffffffffffff8111156106df577f4e487b7100000000000000000000000000000000000000000000000000000000600052604160045260246000fd5b60405190808252806020026020018201604052801561071857816020015b610705611ba6565b8152602001906001900390816106fd5790505b50905060005b84811015610974573073ffffffffffffffffffffffffffffffffffffffff166005600060018461074e91906121ab565b815260200190815260200160002060040160009054906101000a900473ffffffffffffffffffffffffffffffffffffffff1673ffffffffffffffffffffffffffffffffffffffff1614156109615760006001826107ab91906121ab565b90506000600560008381526020019081526020016000209050806040518060e0016040529081600082015481526020016001820160009054906101000a900473ffffffffffffffffffffffffffffffffffffffff1673ffffffffffffffffffffffffffffffffffffffff1673ffffffffffffffffffffffffffffffffffffffff168152602001600282015481526020016003820160009054906101000a900473ffffffffffffffffffffffffffffffffffffffff1673ffffffffffffffffffffffffffffffffffffffff1673ffffffffffffffffffffffffffffffffffffffff1681526020016004820160009054906101000a900473ffffffffffffffffffffffffffffffffffffffff1673ffffffffffffffffffffffffffffffffffffffff1673ffffffffffffffffffffffffffffffffffffffff168152602001600582015481526020016006820160009054906101000a900460ff161515151581525050848681518110610944577f4e487b7100000000000000000000000000000000000000000000000000000000600052603260045260246000fd5b602002602001018190525060018561095c91906121ab565b945050505b808061096c9061228f565b91505061071e565b508094505050505090565b6000600454905090565b606060006109976001611b82565b905060008060005b83811015610a40573373ffffffffffffffffffffffffffffffffffffffff16600560006001846109cf91906121ab565b815260200190815260200160002060040160009054906101000a900473ffffffffffffffffffffffffffffffffffffffff1673ffffffffffffffffffffffffffffffffffffffff161415610a2d57600183610a2a91906121ab565b92505b8080610a389061228f565b91505061099f565b5060008267ffffffffffffffff811115610a83577f4e487b7100000000000000000000000000000000000000000000000000000000600052604160045260246000fd5b604051908082528060200260200182016040528015610abc57816020015b610aa9611ba6565b815260200190600190039081610aa15790505b50905060005b84811015610d18573373ffffffffffffffffffffffffffffffffffffffff1660056000600184610af291906121ab565b815260200190815260200160002060040160009054906101000a900473ffffffffffffffffffffffffffffffffffffffff1673ffffffffffffffffffffffffffffffffffffffff161415610d05576000600182610b4f91906121ab565b90506000600560008381526020019081526020016000209050806040518060e0016040529081600082015481526020016001820160009054906101000a900473ffffffffffffffffffffffffffffffffffffffff1673ffffffffffffffffffffffffffffffffffffffff1673ffffffffffffffffffffffffffffffffffffffff168152602001600282015481526020016003820160009054906101000a900473ffffffffffffffffffffffffffffffffffffffff1673ffffffffffffffffffffffffffffffffffffffff1673ffffffffffffffffffffffffffffffffffffffff1681526020016004820160009054906101000a900473ffffffffffffffffffffffffffffffffffffffff1673ffffffffffffffffffffffffffffffffffffffff1673ffffffffffffffffffffffffffffffffffffffff168152602001600582015481526020016006820160009054906101000a900460ff161515151581525050848681518110610ce8577f4e487b7100000000000000000000000000000000000000000000000000000000600052603260045260246000fd5b6020026020010181905250600185610d0091906121ab565b945050505b8080610d109061228f565b915050610ac2565b508094505050505090565b60606000610d316001611b82565b905060008060005b83811015610e53578573ffffffffffffffffffffffffffffffffffffffff1660056000600184610d6991906121ab565b815260200190815260200160002060030160009054906101000a900473ffffffffffffffffffffffffffffffffffffffff1673ffffffffffffffffffffffffffffffffffffffff16148015610e2b57503073ffffffffffffffffffffffffffffffffffffffff1660056000600184610de191906121ab565b815260200190815260200160002060040160009054906101000a900473ffffffffffffffffffffffffffffffffffffffff1673ffffffffffffffffffffffffffffffffffffffff16145b15610e4057600183610e3d91906121ab565b92505b8080610e4b9061228f565b915050610d39565b5060008267ffffffffffffffff811115610e96577f4e487b7100000000000000000000000000000000000000000000000000000000600052604160045260246000fd5b604051908082528060200260200182016040528015610ecf57816020015b610ebc611ba6565b815260200190600190039081610eb45790505b50905060005b848110156111a4578673ffffffffffffffffffffffffffffffffffffffff1660056000600184610f0591906121ab565b815260200190815260200160002060030160009054906101000a900473ffffffffffffffffffffffffffffffffffffffff1673ffffffffffffffffffffffffffffffffffffffff16148015610fc757503073ffffffffffffffffffffffffffffffffffffffff1660056000600184610f7d91906121ab565b815260200190815260200160002060040160009054906101000a900473ffffffffffffffffffffffffffffffffffffffff1673ffffffffffffffffffffffffffffffffffffffff16145b15611191576000600182610fdb91906121ab565b90506000600560008381526020019081526020016000209050806040518060e0016040529081600082015481526020016001820160009054906101000a900473ffffffffffffffffffffffffffffffffffffffff1673ffffffffffffffffffffffffffffffffffffffff1673ffffffffffffffffffffffffffffffffffffffff168152602001600282015481526020016003820160009054906101000a900473ffffffffffffffffffffffffffffffffffffffff1673ffffffffffffffffffffffffffffffffffffffff1673ffffffffffffffffffffffffffffffffffffffff1681526020016004820160009054906101000a900473ffffffffffffffffffffffffffffffffffffffff1673ffffffffffffffffffffffffffffffffffffffff1673ffffffffffffffffffffffffffffffffffffffff168152602001600582015481526020016006820160009054906101000a900460ff161515151581525050848681518110611174577f4e487b7100000000000000000000000000000000000000000000000000000000600052603260045260246000fd5b602002602001018190525060018561118c91906121ab565b945050505b808061119c9061228f565b915050610ed5565b5080945050505050919050565b6111b9611ba6565b60006111c56001611b82565b905060005b818110156113f6578473ffffffffffffffffffffffffffffffffffffffff16600560006001846111fa91906121ab565b815260200190815260200160002060010160009054906101000a900473ffffffffffffffffffffffffffffffffffffffff1673ffffffffffffffffffffffffffffffffffffffff161480156112705750836005600060018461125c91906121ab565b815260200190815260200160002060020154145b156113e3576005600060018361128691906121ab565b81526020019081526020016000206040518060e0016040529081600082015481526020016001820160009054906101000a900473ffffffffffffffffffffffffffffffffffffffff1673ffffffffffffffffffffffffffffffffffffffff1673ffffffffffffffffffffffffffffffffffffffff168152602001600282015481526020016003820160009054906101000a900473ffffffffffffffffffffffffffffffffffffffff1673ffffffffffffffffffffffffffffffffffffffff1673ffffffffffffffffffffffffffffffffffffffff1681526020016004820160009054906101000a900473ffffffffffffffffffffffffffffffffffffffff1673ffffffffffffffffffffffffffffffffffffffff1673ffffffffffffffffffffffffffffffffffffffff168152602001600582015481526020016006820160009054906101000a900460ff16151515158152505092505050611432565b80806113ee9061228f565b9150506111ca565b506040517f08c379a00000000000000000000000000000000000000000000000000000000081526004016114299061208b565b60405180910390fd5b92915050565b6002600054141561147e576040517f08c379a0000000000000000000000000000000000000000000000000000000008152600401611475906120eb565b60405180910390fd5b6002600081905550600081116114c9576040517f08c379a00000000000000000000000000000000000000000000000000000000081526004016114c09061210b565b60405180910390fd5b600454341461150d576040517f08c379a0000000000000000000000000000000000000000000000000000000008152600401611504906120cb565b60405180910390fd5b8273ffffffffffffffffffffffffffffffffffffffff16636352211e836040518263ffffffff1660e01b81526004016115469190612146565b60206040518083038186803b15801561155e57600080fd5b505afa158015611572573d6000803e3d6000fd5b505050506040513d601f19601f820116820180604052508101906115969190611c8f565b73ffffffffffffffffffffffffffffffffffffffff163373ffffffffffffffffffffffffffffffffffffffff16146115cd57600080fd5b6115d76001611b90565b60006115e36001611b82565b90506040518060e001604052808281526020018573ffffffffffffffffffffffffffffffffffffffff1681526020018481526020013373ffffffffffffffffffffffffffffffffffffffff1681526020013073ffffffffffffffffffffffffffffffffffffffff16815260200183815260200160001515815250600560008381526020019081526020016000206000820151816000015560208201518160010160006101000a81548173ffffffffffffffffffffffffffffffffffffffff021916908373ffffffffffffffffffffffffffffffffffffffff1602179055506040820151816002015560608201518160030160006101000a81548173ffffffffffffffffffffffffffffffffffffffff021916908373ffffffffffffffffffffffffffffffffffffffff16021790555060808201518160040160006101000a81548173ffffffffffffffffffffffffffffffffffffffff021916908373ffffffffffffffffffffffffffffffffffffffff16021790555060a0820151816005015560c08201518160060160006101000a81548160ff0219169083151502179055509050508373ffffffffffffffffffffffffffffffffffffffff166323b872dd3330866040518463ffffffff1660e01b81526004016117c393929190611fed565b600060405180830381600087803b1580156117dd57600080fd5b505af11580156117f1573d6000803e3d6000fd5b50505050828473ffffffffffffffffffffffffffffffffffffffff16827f045dfa01dcba2b36aba1d3dc4a874f4b0c5d2fbeb8d2c4b34a7d88c8d8f929d133308760006040516118449493929190612024565b60405180910390a4506001600081905550505050565b600260005414156118a0576040517f08c379a0000000000000000000000000000000000000000000000000000000008152600401611897906120eb565b60405180910390fd5b6002600081905550600060056000838152602001908152602001600020600501549050600060056000848152602001908152602001600020600201549050813414611920576040517f08c379a0000000000000000000000000000000000000000000000000000000008152600401611917906120ab565b60405180910390fd5b6005600084815260200190815260200160002060030160009054906101000a900473ffffffffffffffffffffffffffffffffffffffff1673ffffffffffffffffffffffffffffffffffffffff163373ffffffffffffffffffffffffffffffffffffffff16141561198f57600080fd5b6005600084815260200190815260200160002060030160009054906101000a900473ffffffffffffffffffffffffffffffffffffffff1673ffffffffffffffffffffffffffffffffffffffff166108fc349081150290604051600060405180830381858888f19350505050158015611a0b573d6000803e3d6000fd5b508373ffffffffffffffffffffffffffffffffffffffff166323b872dd3033846040518463ffffffff1660e01b8152600401611a4993929190611fed565b600060405180830381600087803b158015611a6357600080fd5b505af1158015611a77573d6000803e3d6000fd5b50505050336005600085815260200190815260200160002060040160006101000a81548173ffffffffffffffffffffffffffffffffffffffff021916908373ffffffffffffffffffffffffffffffffffffffff16021790555060016005600085815260200190815260200160002060060160006101000a81548160ff021916908315150217905550611b096002611b90565b600360009054906101000a900473ffffffffffffffffffffffffffffffffffffffff1673ffffffffffffffffffffffffffffffffffffffff166108fc6004549081150290604051600060405180830381858888f19350505050158015611b73573d6000803e3d6000fd5b50505060016000819055505050565b600081600001549050919050565b6001816000016000828254019250508190555050565b6040518060e0016040528060008152602001600073ffffffffffffffffffffffffffffffffffffffff16815260200160008152602001600073ffffffffffffffffffffffffffffffffffffffff168152602001600073ffffffffffffffffffffffffffffffffffffffff168152602001600081526020016000151581525090565b600081359050611c3681612446565b92915050565b600081519050611c4b81612446565b92915050565b600081359050611c608161245d565b92915050565b600060208284031215611c7857600080fd5b6000611c8684828501611c27565b91505092915050565b600060208284031215611ca157600080fd5b6000611caf84828501611c3c565b91505092915050565b60008060408385031215611ccb57600080fd5b6000611cd985828601611c27565b9250506020611cea85828601611c51565b9150509250929050565b600080600060608486031215611d0957600080fd5b6000611d1786828701611c27565b9350506020611d2886828701611c51565b9250506040611d3986828701611c51565b9150509250925092565b6000611d4f8383611eb3565b60e08301905092915050565b611d6481612247565b82525050565b611d7381612235565b82525050565b611d8281612235565b82525050565b6000611d9382612171565b611d9d8185612189565b9350611da883612161565b8060005b83811015611dd9578151611dc08882611d43565b9750611dcb8361217c565b925050600181019050611dac565b5085935050505092915050565b611def81612259565b82525050565b611dfe81612259565b82525050565b6000611e1160098361219a565b9150611e1c82612307565b602082019050919050565b6000611e3460408361219a565b9150611e3f82612330565b604082019050919050565b6000611e5760448361219a565b9150611e628261237f565b606082019050919050565b6000611e7a601f8361219a565b9150611e85826123f4565b602082019050919050565b6000611e9d601c8361219a565b9150611ea88261241d565b602082019050919050565b60e082016000820151611ec96000850182611fcf565b506020820151611edc6020850182611d6a565b506040820151611eef6040850182611fcf565b506060820151611f026060850182611d5b565b506080820151611f156080850182611d5b565b5060a0820151611f2860a0850182611fcf565b5060c0820151611f3b60c0850182611de6565b50505050565b60e082016000820151611f576000850182611fcf565b506020820151611f6a6020850182611d6a565b506040820151611f7d6040850182611fcf565b506060820151611f906060850182611d5b565b506080820151611fa36080850182611d5b565b5060a0820151611fb660a0850182611fcf565b5060c0820151611fc960c0850182611de6565b50505050565b611fd881612285565b82525050565b611fe781612285565b82525050565b60006060820190506120026000830186611d79565b61200f6020830185611d79565b61201c6040830184611fde565b949350505050565b60006080820190506120396000830187611d79565b6120466020830186611d79565b6120536040830185611fde565b6120606060830184611df5565b95945050505050565b600060208201905081810360008301526120838184611d88565b905092915050565b600060208201905081810360008301526120a481611e04565b9050919050565b600060208201905081810360008301526120c481611e27565b9050919050565b600060208201905081810360008301526120e481611e4a565b9050919050565b6000602082019050818103600083015261210481611e6d565b9050919050565b6000602082019050818103600083015261212481611e90565b9050919050565b600060e0820190506121406000830184611f41565b92915050565b600060208201905061215b6000830184611fde565b92915050565b6000819050602082019050919050565b600081519050919050565b6000602082019050919050565b600082825260208201905092915050565b600082825260208201905092915050565b60006121b682612285565b91506121c183612285565b9250827fffffffffffffffffffffffffffffffffffffffffffffffffffffffffffffffff038211156121f6576121f56122d8565b5b828201905092915050565b600061220c82612285565b915061221783612285565b92508282101561222a576122296122d8565b5b828203905092915050565b600061224082612265565b9050919050565b600061225282612265565b9050919050565b60008115159050919050565b600073ffffffffffffffffffffffffffffffffffffffff82169050919050565b6000819050919050565b600061229a82612285565b91507fffffffffffffffffffffffffffffffffffffffffffffffffffffffffffffffff8214156122cd576122cc6122d8565b5b600182019050919050565b7f4e487b7100000000000000000000000000000000000000000000000000000000600052601160045260246000fd5b7f4e6f7420666f756e640000000000000000000000000000000000000000000000600082015250565b7f506c65617365207375626d6974207468652061736b696e67207072696365206960008201527f6e206f7264657220746f20636f6d706c65746520746865207075726368617365602082015250565b7f546865206c697374696e67207072696365206d7573742062652074686520736160008201527f6d6520617320746865206d61726b657420706c616365206c697374696e67207060208201527f7269636500000000000000000000000000000000000000000000000000000000604082015250565b7f5265656e7472616e637947756172643a207265656e7472616e742063616c6c00600082015250565b7f5072696365206d757374206265206174206c6561737420312077656900000000600082015250565b61244f81612235565b811461245a57600080fd5b50565b61246681612285565b811461247157600080fd5b5056fea26469706673582212206b15e97fbe66c52510ba564af4fbcfa612fc019f4e124eb60b43c94515f9ed5864736f6c63430008040033",
  "linkReferences": {},
  "deployedLinkReferences": {}
}