{
  "_format": "hh-sol-artifact-1",
  "contractName": "NFTMarket",
  "sourceName": "contracts/NFTMarket.sol",
  "abi": [
    {
      "inputs": [],
      "stateMutability": "nonpayable",
      "type": "constructor"
    },
    {
      "anonymous": false,
      "inputs": [
        {
          "indexed": true,
          "internalType": "uint256",
          "name": "itemId",
          "type": "uint256"
        },
        {
          "indexed": true,
          "internalType": "address",
          "name": "nftContract",
          "type": "address"
        },
        {
          "indexed": true,
          "internalType": "uint256",
          "name": "tokenId",
          "type": "uint256"
        },
        {
          "indexed": false,
          "internalType": "address",
          "name": "seller",
          "type": "address"
        },
        {
          "indexed": false,
          "internalType": "address",
          "name": "owner",
          "type": "address"
        },
        {
          "indexed": false,
          "internalType": "uint256",
          "name": "price",
          "type": "uint256"
        },
        {
          "indexed": false,
          "internalType": "bool",
          "name": "sold",
          "type": "bool"
        }
      ],
      "name": "MarketItemCreated",
      "type": "event"
    },
    {
      "inputs": [
        {
          "internalType": "address",
          "name": "nftContract",
          "type": "address"
        },
        {
          "internalType": "uint256",
          "name": "tokenId",
          "type": "uint256"
        },
        {
          "internalType": "uint256",
          "name": "price",
          "type": "uint256"
        }
      ],
      "name": "createMarketItem",
      "outputs": [],
      "stateMutability": "payable",
      "type": "function"
    },
    {
      "inputs": [
        {
          "internalType": "address",
          "name": "nftContract",
          "type": "address"
        },
        {
          "internalType": "uint256",
          "name": "itemId",
          "type": "uint256"
        }
      ],
      "name": "createMarketSale",
      "outputs": [],
      "stateMutability": "payable",
      "type": "function"
    },
    {
      "inputs": [
        {
          "internalType": "address",
          "name": "contractAddr",
          "type": "address"
        },
        {
          "internalType": "uint256",
          "name": "tokenId",
          "type": "uint256"
        }
      ],
      "name": "fetchItemByContractAddAndTokenID",
      "outputs": [
        {
          "components": [
            {
              "internalType": "uint256",
              "name": "itemId",
              "type": "uint256"
            },
            {
              "internalType": "address",
              "name": "nftContract",
              "type": "address"
            },
            {
              "internalType": "uint256",
              "name": "tokenId",
              "type": "uint256"
            },
            {
              "internalType": "address payable",
              "name": "seller",
              "type": "address"
            },
            {
              "internalType": "address payable",
              "name": "owner",
              "type": "address"
            },
            {
              "internalType": "uint256",
              "name": "price",
              "type": "uint256"
            },
            {
              "internalType": "bool",
              "name": "sold",
              "type": "bool"
            }
          ],
          "internalType": "struct NFTMarket.MarketItem",
          "name": "",
          "type": "tuple"
        }
      ],
      "stateMutability": "view",
      "type": "function"
    },
    {
      "inputs": [],
      "name": "fetchMarketItems",
      "outputs": [
        {
          "components": [
            {
              "internalType": "uint256",
              "name": "itemId",
              "type": "uint256"
            },
            {
              "internalType": "address",
              "name": "nftContract",
              "type": "address"
            },
            {
              "internalType": "uint256",
              "name": "tokenId",
              "type": "uint256"
            },
            {
              "internalType": "address payable",
              "name": "seller",
              "type": "address"
            },
            {
              "internalType": "address payable",
              "name": "owner",
              "type": "address"
            },
            {
              "internalType": "uint256",
              "name": "price",
              "type": "uint256"
            },
            {
              "internalType": "bool",
              "name": "sold",
              "type": "bool"
            }
          ],
          "internalType": "struct NFTMarket.MarketItem[]",
          "name": "",
          "type": "tuple[]"
        }
      ],
      "stateMutability": "view",
      "type": "function"
    },
    {
      "inputs": [],
      "name": "fetchMyListedNFTs",
      "outputs": [
        {
          "components": [
            {
              "internalType": "uint256",
              "name": "itemId",
              "type": "uint256"
            },
            {
              "internalType": "address",
              "name": "nftContract",
              "type": "address"
            },
            {
              "internalType": "uint256",
              "name": "tokenId",
              "type": "uint256"
            },
            {
              "internalType": "address payable",
              "name": "seller",
              "type": "address"
            },
            {
              "internalType": "address payable",
              "name": "owner",
              "type": "address"
            },
            {
              "internalType": "uint256",
              "name": "price",
              "type": "uint256"
            },
            {
              "internalType": "bool",
              "name": "sold",
              "type": "bool"
            }
          ],
          "internalType": "struct NFTMarket.MarketItem[]",
          "name": "",
          "type": "tuple[]"
        }
      ],
      "stateMutability": "view",
      "type": "function"
    },
    {
      "inputs": [],
      "name": "fetchMyNFTs",
      "outputs": [
        {
          "components": [
            {
              "internalType": "uint256",
              "name": "itemId",
              "type": "uint256"
            },
            {
              "internalType": "address",
              "name": "nftContract",
              "type": "address"
            },
            {
              "internalType": "uint256",
              "name": "tokenId",
              "type": "uint256"
            },
            {
              "internalType": "address payable",
              "name": "seller",
              "type": "address"
            },
            {
              "internalType": "address payable",
              "name": "owner",
              "type": "address"
            },
            {
              "internalType": "uint256",
              "name": "price",
              "type": "uint256"
            },
            {
              "internalType": "bool",
              "name": "sold",
              "type": "bool"
            }
          ],
          "internalType": "struct NFTMarket.MarketItem[]",
          "name": "",
          "type": "tuple[]"
        }
      ],
      "stateMutability": "view",
      "type": "function"
    },
    {
      "inputs": [
        {
          "internalType": "address",
          "name": "userAddress",
          "type": "address"
        }
      ],
      "name": "fetchUserListedNFTs",
      "outputs": [
        {
          "components": [
            {
              "internalType": "uint256",
              "name": "itemId",
              "type": "uint256"
            },
            {
              "internalType": "address",
              "name": "nftContract",
              "type": "address"
            },
            {
              "internalType": "uint256",
              "name": "tokenId",
              "type": "uint256"
            },
            {
              "internalType": "address payable",
              "name": "seller",
              "type": "address"
            },
            {
              "internalType": "address payable",
              "name": "owner",
              "type": "address"
            },
            {
              "internalType": "uint256",
              "name": "price",
              "type": "uint256"
            },
            {
              "internalType": "bool",
              "name": "sold",
              "type": "bool"
            }
          ],
          "internalType": "struct NFTMarket.MarketItem[]",
          "name": "",
          "type": "tuple[]"
        }
      ],
      "stateMutability": "view",
      "type": "function"
    },
    {
      "inputs": [],
      "name": "getListingPrice",
      "outputs": [
        {
          "internalType": "uint256",
          "name": "",
          "type": "uint256"
        }
      ],
      "stateMutability": "view",
      "type": "function"
    },
    {
      "inputs": [
        {
          "internalType": "address",
          "name": "userAddress",
          "type": "address"
        }
      ],
      "name": "testaddress",
      "outputs": [
        {
          "internalType": "address",
          "name": "",
          "type": "address"
        }
      ],
      "stateMutability": "view",
      "type": "function"
    }
  ],
  "bytecode": "0x60806040526658d15e1762800060045534801561001b57600080fd5b50600160008190555033600360006101000a81548173ffffffffffffffffffffffffffffffffffffffff021916908373ffffffffffffffffffffffffffffffffffffffff16021790555061251c806100746000396000f3fe6080604052600436106100865760003560e01c8063202e374011610059578063202e3740146101495780632b600ced146101745780633afef9b8146101b157806358eb2df5146101ee578063c23b139e1461020a57610086565b80630cd82a9e1461008b5780630e2cb944146100c85780630f08efe0146100f357806312e855851461011e575b600080fd5b34801561009757600080fd5b506100b260048036038101906100ad9190611cbd565b610226565b6040516100bf9190612044565b60405180910390f35b3480156100d457600080fd5b506100dd610235565b6040516100ea91906120db565b60405180910390f35b3480156100ff57600080fd5b506101086106c1565b60405161011591906120db565b60405180910390f35b34801561012a57600080fd5b506101336109d6565b60405161014091906121b8565b60405180910390f35b34801561015557600080fd5b5061015e6109e0565b60405161016b91906120db565b60405180910390f35b34801561018057600080fd5b5061019b60048036038101906101969190611cbd565b610d7a565b6040516101a891906120db565b60405180910390f35b3480156101bd57600080fd5b506101d860048036038101906101d39190611d0f565b611208565b6040516101e5919061219d565b60405180910390f35b61020860048036038101906102039190611d4b565b61148f565b005b610224600480360381019061021f9190611d0f565b6118b1565b005b60008082905080915050919050565b606060006102436001611bd9565b905060008060005b83811015610365573373ffffffffffffffffffffffffffffffffffffffff166005600060018461027b919061221d565b815260200190815260200160002060030160009054906101000a900473ffffffffffffffffffffffffffffffffffffffff1673ffffffffffffffffffffffffffffffffffffffff1614801561033d57503073ffffffffffffffffffffffffffffffffffffffff16600560006001846102f3919061221d565b815260200190815260200160002060040160009054906101000a900473ffffffffffffffffffffffffffffffffffffffff1673ffffffffffffffffffffffffffffffffffffffff16145b156103525760018361034f919061221d565b92505b808061035d90612301565b91505061024b565b5060008267ffffffffffffffff8111156103a8577f4e487b7100000000000000000000000000000000000000000000000000000000600052604160045260246000fd5b6040519080825280602002602001820160405280156103e157816020015b6103ce611bfd565b8152602001906001900390816103c65790505b50905060005b848110156106b6573373ffffffffffffffffffffffffffffffffffffffff1660056000600184610417919061221d565b815260200190815260200160002060030160009054906101000a900473ffffffffffffffffffffffffffffffffffffffff1673ffffffffffffffffffffffffffffffffffffffff161480156104d957503073ffffffffffffffffffffffffffffffffffffffff166005600060018461048f919061221d565b815260200190815260200160002060040160009054906101000a900473ffffffffffffffffffffffffffffffffffffffff1673ffffffffffffffffffffffffffffffffffffffff16145b156106a35760006001826104ed919061221d565b90506000600560008381526020019081526020016000209050806040518060e0016040529081600082015481526020016001820160009054906101000a900473ffffffffffffffffffffffffffffffffffffffff1673ffffffffffffffffffffffffffffffffffffffff1673ffffffffffffffffffffffffffffffffffffffff168152602001600282015481526020016003820160009054906101000a900473ffffffffffffffffffffffffffffffffffffffff1673ffffffffffffffffffffffffffffffffffffffff1673ffffffffffffffffffffffffffffffffffffffff1681526020016004820160009054906101000a900473ffffffffffffffffffffffffffffffffffffffff1673ffffffffffffffffffffffffffffffffffffffff1673ffffffffffffffffffffffffffffffffffffffff168152602001600582015481526020016006820160009054906101000a900460ff161515151581525050848681518110610686577f4e487b7100000000000000000000000000000000000000000000000000000000600052603260045260246000fd5b602002602001018190525060018561069e919061221d565b945050505b80806106ae90612301565b9150506103e7565b508094505050505090565b606060006106cf6001611bd9565b905060006106dd6002611bd9565b6106e76001611bd9565b6106f19190612273565b90506000808267ffffffffffffffff811115610736577f4e487b7100000000000000000000000000000000000000000000000000000000600052604160045260246000fd5b60405190808252806020026020018201604052801561076f57816020015b61075c611bfd565b8152602001906001900390816107545790505b50905060005b848110156109cb573073ffffffffffffffffffffffffffffffffffffffff16600560006001846107a5919061221d565b815260200190815260200160002060040160009054906101000a900473ffffffffffffffffffffffffffffffffffffffff1673ffffffffffffffffffffffffffffffffffffffff1614156109b8576000600182610802919061221d565b90506000600560008381526020019081526020016000209050806040518060e0016040529081600082015481526020016001820160009054906101000a900473ffffffffffffffffffffffffffffffffffffffff1673ffffffffffffffffffffffffffffffffffffffff1673ffffffffffffffffffffffffffffffffffffffff168152602001600282015481526020016003820160009054906101000a900473ffffffffffffffffffffffffffffffffffffffff1673ffffffffffffffffffffffffffffffffffffffff1673ffffffffffffffffffffffffffffffffffffffff1681526020016004820160009054906101000a900473ffffffffffffffffffffffffffffffffffffffff1673ffffffffffffffffffffffffffffffffffffffff1673ffffffffffffffffffffffffffffffffffffffff168152602001600582015481526020016006820160009054906101000a900460ff16151515158152505084868151811061099b577f4e487b7100000000000000000000000000000000000000000000000000000000600052603260045260246000fd5b60200260200101819052506001856109b3919061221d565b945050505b80806109c390612301565b915050610775565b508094505050505090565b6000600454905090565b606060006109ee6001611bd9565b905060008060005b83811015610a97573373ffffffffffffffffffffffffffffffffffffffff1660056000600184610a26919061221d565b815260200190815260200160002060040160009054906101000a900473ffffffffffffffffffffffffffffffffffffffff1673ffffffffffffffffffffffffffffffffffffffff161415610a8457600183610a81919061221d565b92505b8080610a8f90612301565b9150506109f6565b5060008267ffffffffffffffff811115610ada577f4e487b7100000000000000000000000000000000000000000000000000000000600052604160045260246000fd5b604051908082528060200260200182016040528015610b1357816020015b610b00611bfd565b815260200190600190039081610af85790505b50905060005b84811015610d6f573373ffffffffffffffffffffffffffffffffffffffff1660056000600184610b49919061221d565b815260200190815260200160002060040160009054906101000a900473ffffffffffffffffffffffffffffffffffffffff1673ffffffffffffffffffffffffffffffffffffffff161415610d5c576000600182610ba6919061221d565b90506000600560008381526020019081526020016000209050806040518060e0016040529081600082015481526020016001820160009054906101000a900473ffffffffffffffffffffffffffffffffffffffff1673ffffffffffffffffffffffffffffffffffffffff1673ffffffffffffffffffffffffffffffffffffffff168152602001600282015481526020016003820160009054906101000a900473ffffffffffffffffffffffffffffffffffffffff1673ffffffffffffffffffffffffffffffffffffffff1673ffffffffffffffffffffffffffffffffffffffff1681526020016004820160009054906101000a900473ffffffffffffffffffffffffffffffffffffffff1673ffffffffffffffffffffffffffffffffffffffff1673ffffffffffffffffffffffffffffffffffffffff168152602001600582015481526020016006820160009054906101000a900460ff161515151581525050848681518110610d3f577f4e487b7100000000000000000000000000000000000000000000000000000000600052603260045260246000fd5b6020026020010181905250600185610d57919061221d565b945050505b8080610d6790612301565b915050610b19565b508094505050505090565b60606000610d886001611bd9565b905060008060005b83811015610eaa578573ffffffffffffffffffffffffffffffffffffffff1660056000600184610dc0919061221d565b815260200190815260200160002060030160009054906101000a900473ffffffffffffffffffffffffffffffffffffffff1673ffffffffffffffffffffffffffffffffffffffff16148015610e8257508573ffffffffffffffffffffffffffffffffffffffff1660056000600184610e38919061221d565b815260200190815260200160002060040160009054906101000a900473ffffffffffffffffffffffffffffffffffffffff1673ffffffffffffffffffffffffffffffffffffffff16145b15610e9757600183610e94919061221d565b92505b8080610ea290612301565b915050610d90565b5060008267ffffffffffffffff811115610eed577f4e487b7100000000000000000000000000000000000000000000000000000000600052604160045260246000fd5b604051908082528060200260200182016040528015610f2657816020015b610f13611bfd565b815260200190600190039081610f0b5790505b50905060005b848110156111fb578673ffffffffffffffffffffffffffffffffffffffff1660056000600184610f5c919061221d565b815260200190815260200160002060030160009054906101000a900473ffffffffffffffffffffffffffffffffffffffff1673ffffffffffffffffffffffffffffffffffffffff1614801561101e57508673ffffffffffffffffffffffffffffffffffffffff1660056000600184610fd4919061221d565b815260200190815260200160002060040160009054906101000a900473ffffffffffffffffffffffffffffffffffffffff1673ffffffffffffffffffffffffffffffffffffffff16145b156111e8576000600182611032919061221d565b90506000600560008381526020019081526020016000209050806040518060e0016040529081600082015481526020016001820160009054906101000a900473ffffffffffffffffffffffffffffffffffffffff1673ffffffffffffffffffffffffffffffffffffffff1673ffffffffffffffffffffffffffffffffffffffff168152602001600282015481526020016003820160009054906101000a900473ffffffffffffffffffffffffffffffffffffffff1673ffffffffffffffffffffffffffffffffffffffff1673ffffffffffffffffffffffffffffffffffffffff1681526020016004820160009054906101000a900473ffffffffffffffffffffffffffffffffffffffff1673ffffffffffffffffffffffffffffffffffffffff1673ffffffffffffffffffffffffffffffffffffffff168152602001600582015481526020016006820160009054906101000a900460ff1615151515815250508486815181106111cb577f4e487b7100000000000000000000000000000000000000000000000000000000600052603260045260246000fd5b60200260200101819052506001856111e3919061221d565b945050505b80806111f390612301565b915050610f2c565b5080945050505050919050565b611210611bfd565b600061121c6001611bd9565b905060005b8181101561144d578473ffffffffffffffffffffffffffffffffffffffff1660056000600184611251919061221d565b815260200190815260200160002060010160009054906101000a900473ffffffffffffffffffffffffffffffffffffffff1673ffffffffffffffffffffffffffffffffffffffff161480156112c7575083600560006001846112b3919061221d565b815260200190815260200160002060020154145b1561143a57600560006001836112dd919061221d565b81526020019081526020016000206040518060e0016040529081600082015481526020016001820160009054906101000a900473ffffffffffffffffffffffffffffffffffffffff1673ffffffffffffffffffffffffffffffffffffffff1673ffffffffffffffffffffffffffffffffffffffff168152602001600282015481526020016003820160009054906101000a900473ffffffffffffffffffffffffffffffffffffffff1673ffffffffffffffffffffffffffffffffffffffff1673ffffffffffffffffffffffffffffffffffffffff1681526020016004820160009054906101000a900473ffffffffffffffffffffffffffffffffffffffff1673ffffffffffffffffffffffffffffffffffffffff1673ffffffffffffffffffffffffffffffffffffffff168152602001600582015481526020016006820160009054906101000a900460ff16151515158152505092505050611489565b808061144590612301565b915050611221565b506040517f08c379a0000000000000000000000000000000000000000000000000000000008152600401611480906120fd565b60405180910390fd5b92915050565b600260005414156114d5576040517f08c379a00000000000000000000000000000000000000000000000000000000081526004016114cc9061215d565b60405180910390fd5b600260008190555060008111611520576040517f08c379a00000000000000000000000000000000000000000000000000000000081526004016115179061217d565b60405180910390fd5b6004543414611564576040517f08c379a000000000000000000000000000000000000000000000000000000000815260040161155b9061213d565b60405180910390fd5b8273ffffffffffffffffffffffffffffffffffffffff16636352211e836040518263ffffffff1660e01b815260040161159d91906121b8565b60206040518083038186803b1580156115b557600080fd5b505afa1580156115c9573d6000803e3d6000fd5b505050506040513d601f19601f820116820180604052508101906115ed9190611ce6565b73ffffffffffffffffffffffffffffffffffffffff163373ffffffffffffffffffffffffffffffffffffffff161461162457600080fd5b61162e6001611be7565b600061163a6001611bd9565b90506040518060e001604052808281526020018573ffffffffffffffffffffffffffffffffffffffff1681526020018481526020013373ffffffffffffffffffffffffffffffffffffffff1681526020013073ffffffffffffffffffffffffffffffffffffffff16815260200183815260200160001515815250600560008381526020019081526020016000206000820151816000015560208201518160010160006101000a81548173ffffffffffffffffffffffffffffffffffffffff021916908373ffffffffffffffffffffffffffffffffffffffff1602179055506040820151816002015560608201518160030160006101000a81548173ffffffffffffffffffffffffffffffffffffffff021916908373ffffffffffffffffffffffffffffffffffffffff16021790555060808201518160040160006101000a81548173ffffffffffffffffffffffffffffffffffffffff021916908373ffffffffffffffffffffffffffffffffffffffff16021790555060a0820151816005015560c08201518160060160006101000a81548160ff0219169083151502179055509050508373ffffffffffffffffffffffffffffffffffffffff166323b872dd3330866040518463ffffffff1660e01b815260040161181a9392919061205f565b600060405180830381600087803b15801561183457600080fd5b505af1158015611848573d6000803e3d6000fd5b50505050828473ffffffffffffffffffffffffffffffffffffffff16827f045dfa01dcba2b36aba1d3dc4a874f4b0c5d2fbeb8d2c4b34a7d88c8d8f929d1333087600060405161189b9493929190612096565b60405180910390a4506001600081905550505050565b600260005414156118f7576040517f08c379a00000000000000000000000000000000000000000000000000000000081526004016118ee9061215d565b60405180910390fd5b6002600081905550600060056000838152602001908152602001600020600501549050600060056000848152602001908152602001600020600201549050813414611977576040517f08c379a000000000000000000000000000000000000000000000000000000000815260040161196e9061211d565b60405180910390fd5b6005600084815260200190815260200160002060030160009054906101000a900473ffffffffffffffffffffffffffffffffffffffff1673ffffffffffffffffffffffffffffffffffffffff163373ffffffffffffffffffffffffffffffffffffffff1614156119e657600080fd5b6005600084815260200190815260200160002060030160009054906101000a900473ffffffffffffffffffffffffffffffffffffffff1673ffffffffffffffffffffffffffffffffffffffff166108fc349081150290604051600060405180830381858888f19350505050158015611a62573d6000803e3d6000fd5b508373ffffffffffffffffffffffffffffffffffffffff166323b872dd3033846040518463ffffffff1660e01b8152600401611aa09392919061205f565b600060405180830381600087803b158015611aba57600080fd5b505af1158015611ace573d6000803e3d6000fd5b50505050336005600085815260200190815260200160002060040160006101000a81548173ffffffffffffffffffffffffffffffffffffffff021916908373ffffffffffffffffffffffffffffffffffffffff16021790555060016005600085815260200190815260200160002060060160006101000a81548160ff021916908315150217905550611b606002611be7565b600360009054906101000a900473ffffffffffffffffffffffffffffffffffffffff1673ffffffffffffffffffffffffffffffffffffffff166108fc6004549081150290604051600060405180830381858888f19350505050158015611bca573d6000803e3d6000fd5b50505060016000819055505050565b600081600001549050919050565b6001816000016000828254019250508190555050565b6040518060e0016040528060008152602001600073ffffffffffffffffffffffffffffffffffffffff16815260200160008152602001600073ffffffffffffffffffffffffffffffffffffffff168152602001600073ffffffffffffffffffffffffffffffffffffffff168152602001600081526020016000151581525090565b600081359050611c8d816124b8565b92915050565b600081519050611ca2816124b8565b92915050565b600081359050611cb7816124cf565b92915050565b600060208284031215611ccf57600080fd5b6000611cdd84828501611c7e565b91505092915050565b600060208284031215611cf857600080fd5b6000611d0684828501611c93565b91505092915050565b60008060408385031215611d2257600080fd5b6000611d3085828601611c7e565b9250506020611d4185828601611ca8565b9150509250929050565b600080600060608486031215611d6057600080fd5b6000611d6e86828701611c7e565b9350506020611d7f86828701611ca8565b9250506040611d9086828701611ca8565b9150509250925092565b6000611da68383611f0a565b60e08301905092915050565b611dbb816122b9565b82525050565b611dca816122a7565b82525050565b611dd9816122a7565b82525050565b6000611dea826121e3565b611df481856121fb565b9350611dff836121d3565b8060005b83811015611e30578151611e178882611d9a565b9750611e22836121ee565b925050600181019050611e03565b5085935050505092915050565b611e46816122cb565b82525050565b611e55816122cb565b82525050565b6000611e6860098361220c565b9150611e7382612379565b602082019050919050565b6000611e8b60408361220c565b9150611e96826123a2565b604082019050919050565b6000611eae60448361220c565b9150611eb9826123f1565b606082019050919050565b6000611ed1601f8361220c565b9150611edc82612466565b602082019050919050565b6000611ef4601c8361220c565b9150611eff8261248f565b602082019050919050565b60e082016000820151611f206000850182612026565b506020820151611f336020850182611dc1565b506040820151611f466040850182612026565b506060820151611f596060850182611db2565b506080820151611f6c6080850182611db2565b5060a0820151611f7f60a0850182612026565b5060c0820151611f9260c0850182611e3d565b50505050565b60e082016000820151611fae6000850182612026565b506020820151611fc16020850182611dc1565b506040820151611fd46040850182612026565b506060820151611fe76060850182611db2565b506080820151611ffa6080850182611db2565b5060a082015161200d60a0850182612026565b5060c082015161202060c0850182611e3d565b50505050565b61202f816122f7565b82525050565b61203e816122f7565b82525050565b60006020820190506120596000830184611dd0565b92915050565b60006060820190506120746000830186611dd0565b6120816020830185611dd0565b61208e6040830184612035565b949350505050565b60006080820190506120ab6000830187611dd0565b6120b86020830186611dd0565b6120c56040830185612035565b6120d26060830184611e4c565b95945050505050565b600060208201905081810360008301526120f58184611ddf565b905092915050565b6000602082019050818103600083015261211681611e5b565b9050919050565b6000602082019050818103600083015261213681611e7e565b9050919050565b6000602082019050818103600083015261215681611ea1565b9050919050565b6000602082019050818103600083015261217681611ec4565b9050919050565b6000602082019050818103600083015261219681611ee7565b9050919050565b600060e0820190506121b26000830184611f98565b92915050565b60006020820190506121cd6000830184612035565b92915050565b6000819050602082019050919050565b600081519050919050565b6000602082019050919050565b600082825260208201905092915050565b600082825260208201905092915050565b6000612228826122f7565b9150612233836122f7565b9250827fffffffffffffffffffffffffffffffffffffffffffffffffffffffffffffffff038211156122685761226761234a565b5b828201905092915050565b600061227e826122f7565b9150612289836122f7565b92508282101561229c5761229b61234a565b5b828203905092915050565b60006122b2826122d7565b9050919050565b60006122c4826122d7565b9050919050565b60008115159050919050565b600073ffffffffffffffffffffffffffffffffffffffff82169050919050565b6000819050919050565b600061230c826122f7565b91507fffffffffffffffffffffffffffffffffffffffffffffffffffffffffffffffff82141561233f5761233e61234a565b5b600182019050919050565b7f4e487b7100000000000000000000000000000000000000000000000000000000600052601160045260246000fd5b7f4e6f7420666f756e640000000000000000000000000000000000000000000000600082015250565b7f506c65617365207375626d6974207468652061736b696e67207072696365206960008201527f6e206f7264657220746f20636f6d706c65746520746865207075726368617365602082015250565b7f546865206c697374696e67207072696365206d7573742062652074686520736160008201527f6d6520617320746865206d61726b657420706c616365206c697374696e67207060208201527f7269636500000000000000000000000000000000000000000000000000000000604082015250565b7f5265656e7472616e637947756172643a207265656e7472616e742063616c6c00600082015250565b7f5072696365206d757374206265206174206c6561737420312077656900000000600082015250565b6124c1816122a7565b81146124cc57600080fd5b50565b6124d8816122f7565b81146124e357600080fd5b5056fea264697066735822122060b1123d850f4e19fbb48e6b647e91f70e7fac8b2dbd52bcde634bb499e9417564736f6c63430008040033",
  "linkReferences": {},
  "deployedLinkReferences": {}
}